{
  "address": "0x1b07b4d86951b39f20C99451A8d440B27A46A7a5",
  "abi": [
    {
      "inputs": [
        {
          "internalType": "uint64",
          "name": "subscriptionId",
          "type": "uint64"
        },
        {
          "internalType": "address",
          "name": "vrfCoordinator",
          "type": "address"
        },
        {
          "internalType": "bytes32",
          "name": "keyHash",
          "type": "bytes32"
        },
        {
          "internalType": "uint32",
          "name": "callbackGasLimit",
          "type": "uint32"
        },
        {
          "internalType": "uint256",
          "name": "packPrice",
          "type": "uint256"
        }
      ],
      "stateMutability": "nonpayable",
      "type": "constructor"
    },
    {
      "inputs": [],
      "name": "AvatarItems_insufficientBalance",
      "type": "error"
    },
    {
      "inputs": [
        {
          "internalType": "address",
          "name": "have",
          "type": "address"
        },
        {
          "internalType": "address",
          "name": "want",
          "type": "address"
        }
      ],
      "name": "OnlyCoordinatorCanFulfill",
      "type": "error"
    },
    {
      "anonymous": false,
      "inputs": [
        {
          "indexed": true,
          "internalType": "address",
          "name": "account",
          "type": "address"
        },
        {
          "indexed": true,
          "internalType": "address",
          "name": "operator",
          "type": "address"
        },
        {
          "indexed": false,
          "internalType": "bool",
          "name": "approved",
          "type": "bool"
        }
      ],
      "name": "ApprovalForAll",
      "type": "event"
    },
    {
      "anonymous": false,
      "inputs": [
        {
          "indexed": true,
          "internalType": "address",
          "name": "operator",
          "type": "address"
        },
        {
          "indexed": true,
          "internalType": "address",
          "name": "from",
          "type": "address"
        },
        {
          "indexed": true,
          "internalType": "address",
          "name": "to",
          "type": "address"
        },
        {
          "indexed": false,
          "internalType": "uint256[]",
          "name": "ids",
          "type": "uint256[]"
        },
        {
          "indexed": false,
          "internalType": "uint256[]",
          "name": "values",
          "type": "uint256[]"
        }
      ],
      "name": "TransferBatch",
      "type": "event"
    },
    {
      "anonymous": false,
      "inputs": [
        {
          "indexed": true,
          "internalType": "address",
          "name": "operator",
          "type": "address"
        },
        {
          "indexed": true,
          "internalType": "address",
          "name": "from",
          "type": "address"
        },
        {
          "indexed": true,
          "internalType": "address",
          "name": "to",
          "type": "address"
        },
        {
          "indexed": false,
          "internalType": "uint256",
          "name": "id",
          "type": "uint256"
        },
        {
          "indexed": false,
          "internalType": "uint256",
          "name": "value",
          "type": "uint256"
        }
      ],
      "name": "TransferSingle",
      "type": "event"
    },
    {
      "anonymous": false,
      "inputs": [
        {
          "indexed": false,
          "internalType": "string",
          "name": "value",
          "type": "string"
        },
        {
          "indexed": true,
          "internalType": "uint256",
          "name": "id",
          "type": "uint256"
        }
      ],
      "name": "URI",
      "type": "event"
    },
    {
      "anonymous": false,
      "inputs": [
        {
          "indexed": true,
          "internalType": "address",
          "name": "_address",
          "type": "address"
        },
        {
          "indexed": false,
          "internalType": "uint256",
          "name": "_amount",
          "type": "uint256"
        }
      ],
      "name": "earnedReward",
      "type": "event"
    },
    {
      "anonymous": false,
      "inputs": [
        {
          "indexed": false,
          "internalType": "enum AvatarItems.ItemType",
          "name": "_type",
          "type": "uint8"
        },
        {
          "indexed": false,
          "internalType": "uint256",
          "name": "_itemId",
          "type": "uint256"
        },
        {
          "indexed": false,
          "internalType": "string",
          "name": "_name",
          "type": "string"
        }
      ],
      "name": "itemAdded",
      "type": "event"
    },
    {
      "anonymous": false,
      "inputs": [
        {
          "indexed": true,
          "internalType": "address",
          "name": "_address",
          "type": "address"
        },
        {
          "indexed": false,
          "internalType": "uint256",
          "name": "_requestId",
          "type": "uint256"
        }
      ],
      "name": "packBought",
      "type": "event"
    },
    {
      "anonymous": false,
      "inputs": [
        {
          "indexed": true,
          "internalType": "address",
          "name": "_address",
          "type": "address"
        },
        {
          "indexed": false,
          "internalType": "uint256",
          "name": "_requestId",
          "type": "uint256"
        },
        {
          "indexed": false,
          "internalType": "uint256",
          "name": "_itemId",
          "type": "uint256"
        }
      ],
      "name": "packOpened",
      "type": "event"
    },
    {
      "anonymous": false,
      "inputs": [
        {
          "indexed": true,
          "internalType": "address",
          "name": "_address",
          "type": "address"
        },
        {
          "indexed": false,
          "internalType": "uint256",
          "name": "powerUpId",
          "type": "uint256"
        }
      ],
      "name": "powerUpMinted",
      "type": "event"
    },
    {
      "inputs": [
        {
          "internalType": "address",
          "name": "",
          "type": "address"
        }
      ],
      "name": "ActivationCheck",
      "outputs": [
        {
          "internalType": "uint256",
          "name": "timestamp",
          "type": "uint256"
        },
        {
          "internalType": "uint256",
          "name": "duration",
          "type": "uint256"
        },
        {
          "internalType": "uint256",
          "name": "multiplier",
          "type": "uint256"
        }
      ],
      "stateMutability": "view",
      "type": "function"
    },
    {
      "inputs": [
        {
          "internalType": "address",
          "name": "",
          "type": "address"
        }
      ],
      "name": "AuthorizedContracts",
      "outputs": [
        {
          "internalType": "bool",
          "name": "",
          "type": "bool"
        }
      ],
      "stateMutability": "view",
      "type": "function"
    },
    {
      "inputs": [
        {
          "internalType": "address",
          "name": "",
          "type": "address"
        }
      ],
      "name": "Discounts",
      "outputs": [
        {
          "internalType": "uint256",
          "name": "",
          "type": "uint256"
        }
      ],
      "stateMutability": "view",
      "type": "function"
    },
    {
      "inputs": [
        {
          "internalType": "uint256",
          "name": "",
          "type": "uint256"
        }
      ],
      "name": "ItemDescriptions",
      "outputs": [
        {
          "internalType": "string",
          "name": "name",
          "type": "string"
        },
        {
          "internalType": "uint256",
          "name": "itemSupply",
          "type": "uint256"
        }
      ],
      "stateMutability": "view",
      "type": "function"
    },
    {
      "inputs": [
        {
          "internalType": "enum AvatarItems.ItemType",
          "name": "",
          "type": "uint8"
        },
        {
          "internalType": "uint256",
          "name": "",
          "type": "uint256"
        }
      ],
      "name": "ItemTypes",
      "outputs": [
        {
          "internalType": "uint256",
          "name": "",
          "type": "uint256"
        }
      ],
      "stateMutability": "view",
      "type": "function"
    },
    {
      "inputs": [
        {
          "internalType": "uint256",
          "name": "powerupId",
          "type": "uint256"
        }
      ],
      "name": "activatePowerUp",
      "outputs": [],
      "stateMutability": "nonpayable",
      "type": "function"
    },
    {
      "inputs": [
        {
          "internalType": "enum AvatarItems.ItemType",
          "name": "_type",
          "type": "uint8"
        },
        {
          "internalType": "string",
          "name": "newName",
          "type": "string"
        },
        {
          "internalType": "uint256",
          "name": "itemSupply",
          "type": "uint256"
        }
      ],
      "name": "addAvatarItem",
      "outputs": [],
      "stateMutability": "nonpayable",
      "type": "function"
    },
    {
      "inputs": [
        {
          "internalType": "uint256",
          "name": "itemId",
          "type": "uint256"
        },
        {
          "internalType": "uint256",
          "name": "additionalSupply",
          "type": "uint256"
        }
      ],
      "name": "addItemSupply",
      "outputs": [],
      "stateMutability": "nonpayable",
      "type": "function"
    },
    {
      "inputs": [
        {
          "internalType": "string",
          "name": "name",
          "type": "string"
        },
        {
          "internalType": "uint256",
          "name": "multiplier",
          "type": "uint256"
        },
        {
          "internalType": "uint256",
          "name": "duration",
          "type": "uint256"
        }
      ],
      "name": "addPowerUp",
      "outputs": [],
      "stateMutability": "nonpayable",
      "type": "function"
    },
    {
      "inputs": [
        {
          "internalType": "address",
          "name": "_address",
          "type": "address"
        }
      ],
      "name": "authorizeContract",
      "outputs": [],
      "stateMutability": "nonpayable",
      "type": "function"
    },
    {
      "inputs": [
        {
          "internalType": "address",
          "name": "account",
          "type": "address"
        },
        {
          "internalType": "uint256",
          "name": "id",
          "type": "uint256"
        }
      ],
      "name": "balanceOf",
      "outputs": [
        {
          "internalType": "uint256",
          "name": "",
          "type": "uint256"
        }
      ],
      "stateMutability": "view",
      "type": "function"
    },
    {
      "inputs": [
        {
          "internalType": "address[]",
          "name": "accounts",
          "type": "address[]"
        },
        {
          "internalType": "uint256[]",
          "name": "ids",
          "type": "uint256[]"
        }
      ],
      "name": "balanceOfBatch",
      "outputs": [
        {
          "internalType": "uint256[]",
          "name": "",
          "type": "uint256[]"
        }
      ],
      "stateMutability": "view",
      "type": "function"
    },
    {
      "inputs": [
        {
          "internalType": "address",
          "name": "_address",
          "type": "address"
        }
      ],
      "name": "buyPack",
      "outputs": [
        {
          "internalType": "uint256",
          "name": "requestId",
          "type": "uint256"
        }
      ],
      "stateMutability": "nonpayable",
      "type": "function"
    },
    {
      "inputs": [],
      "name": "contractURI",
      "outputs": [
        {
          "internalType": "string",
          "name": "",
          "type": "string"
        }
      ],
      "stateMutability": "pure",
      "type": "function"
    },
    {
      "inputs": [
        {
          "internalType": "string",
          "name": "itemName",
          "type": "string"
        }
      ],
      "name": "doesItemExist",
      "outputs": [
        {
          "internalType": "bool",
          "name": "",
          "type": "bool"
        }
      ],
      "stateMutability": "view",
      "type": "function"
    },
    {
      "inputs": [
        {
          "internalType": "address",
          "name": "_address",
          "type": "address"
        },
        {
          "internalType": "uint256",
          "name": "amount",
          "type": "uint256"
        }
      ],
      "name": "earnRewards",
      "outputs": [],
      "stateMutability": "nonpayable",
      "type": "function"
    },
    {
      "inputs": [],
      "name": "getChanceArray",
      "outputs": [
        {
          "internalType": "uint8[6]",
          "name": "",
          "type": "uint8[6]"
        }
      ],
      "stateMutability": "pure",
      "type": "function"
    },
    {
      "inputs": [
        {
          "internalType": "uint256",
          "name": "",
          "type": "uint256"
        }
      ],
      "name": "getRequestAddress",
      "outputs": [
        {
          "internalType": "address",
          "name": "",
          "type": "address"
        }
      ],
      "stateMutability": "view",
      "type": "function"
    },
    {
      "inputs": [
        {
          "internalType": "address",
          "name": "account",
          "type": "address"
        },
        {
          "internalType": "address",
          "name": "operator",
          "type": "address"
        }
      ],
      "name": "isApprovedForAll",
      "outputs": [
        {
          "internalType": "bool",
          "name": "",
          "type": "bool"
        }
      ],
      "stateMutability": "view",
      "type": "function"
    },
    {
      "inputs": [
        {
          "internalType": "address",
          "name": "_address",
          "type": "address"
        },
        {
          "internalType": "uint256",
          "name": "powerUpId",
          "type": "uint256"
        },
        {
          "internalType": "uint256",
          "name": "amount",
          "type": "uint256"
        }
      ],
      "name": "powerUpMint",
      "outputs": [],
      "stateMutability": "nonpayable",
      "type": "function"
    },
    {
      "inputs": [
        {
          "internalType": "uint256",
          "name": "",
          "type": "uint256"
        }
      ],
      "name": "powerUps",
      "outputs": [
        {
          "internalType": "string",
          "name": "name",
          "type": "string"
        },
        {
          "internalType": "uint256",
          "name": "multiplier",
          "type": "uint256"
        },
        {
          "internalType": "uint256",
          "name": "duration",
          "type": "uint256"
        }
      ],
      "stateMutability": "view",
      "type": "function"
    },
    {
      "inputs": [
        {
          "internalType": "uint256",
          "name": "requestId",
          "type": "uint256"
        },
        {
          "internalType": "uint256[]",
          "name": "randomWords",
          "type": "uint256[]"
        }
      ],
      "name": "rawFulfillRandomWords",
      "outputs": [],
      "stateMutability": "nonpayable",
      "type": "function"
    },
    {
      "inputs": [],
      "name": "s_itemCounter",
      "outputs": [
        {
          "internalType": "uint256",
          "name": "",
          "type": "uint256"
        }
      ],
      "stateMutability": "view",
      "type": "function"
    },
    {
      "inputs": [],
      "name": "s_packPrice",
      "outputs": [
        {
          "internalType": "uint256",
          "name": "",
          "type": "uint256"
        }
      ],
      "stateMutability": "view",
      "type": "function"
    },
    {
      "inputs": [],
      "name": "s_rewardCoins",
      "outputs": [
        {
          "internalType": "uint256",
          "name": "",
          "type": "uint256"
        }
      ],
      "stateMutability": "view",
      "type": "function"
    },
    {
      "inputs": [
        {
          "internalType": "address",
          "name": "from",
          "type": "address"
        },
        {
          "internalType": "address",
          "name": "to",
          "type": "address"
        },
        {
          "internalType": "uint256[]",
          "name": "ids",
          "type": "uint256[]"
        },
        {
          "internalType": "uint256[]",
          "name": "amounts",
          "type": "uint256[]"
        },
        {
          "internalType": "bytes",
          "name": "data",
          "type": "bytes"
        }
      ],
      "name": "safeBatchTransferFrom",
      "outputs": [],
      "stateMutability": "nonpayable",
      "type": "function"
    },
    {
      "inputs": [
        {
          "internalType": "address",
          "name": "from",
          "type": "address"
        },
        {
          "internalType": "address",
          "name": "to",
          "type": "address"
        },
        {
          "internalType": "uint256",
          "name": "id",
          "type": "uint256"
        },
        {
          "internalType": "uint256",
          "name": "amount",
          "type": "uint256"
        },
        {
          "internalType": "bytes",
          "name": "data",
          "type": "bytes"
        }
      ],
      "name": "safeTransferFrom",
      "outputs": [],
      "stateMutability": "nonpayable",
      "type": "function"
    },
    {
      "inputs": [
        {
          "internalType": "address",
          "name": "operator",
          "type": "address"
        },
        {
          "internalType": "bool",
          "name": "approved",
          "type": "bool"
        }
      ],
      "name": "setApprovalForAll",
      "outputs": [],
      "stateMutability": "nonpayable",
      "type": "function"
    },
    {
      "inputs": [
        {
          "internalType": "uint256",
          "name": "newPrice",
          "type": "uint256"
        }
      ],
      "name": "setPackPrice",
      "outputs": [],
      "stateMutability": "nonpayable",
      "type": "function"
    },
    {
      "inputs": [
        {
          "internalType": "bytes4",
          "name": "interfaceId",
          "type": "bytes4"
        }
      ],
      "name": "supportsInterface",
      "outputs": [
        {
          "internalType": "bool",
          "name": "",
          "type": "bool"
        }
      ],
      "stateMutability": "view",
      "type": "function"
    },
    {
      "inputs": [
        {
          "internalType": "address",
          "name": "_address",
          "type": "address"
        }
      ],
      "name": "timeLock",
      "outputs": [
        {
          "internalType": "uint256",
          "name": "",
          "type": "uint256"
        }
      ],
      "stateMutability": "view",
      "type": "function"
    },
    {
      "inputs": [
        {
          "internalType": "uint256",
          "name": "_tokenId",
          "type": "uint256"
        }
      ],
      "name": "uri",
      "outputs": [
        {
          "internalType": "string",
          "name": "",
          "type": "string"
        }
      ],
      "stateMutability": "pure",
      "type": "function"
    },
    {
      "inputs": [
        {
          "internalType": "uint256",
          "name": "itemId",
          "type": "uint256"
        }
      ],
      "name": "viewItemDescription",
      "outputs": [
        {
          "components": [
            {
              "internalType": "string",
              "name": "name",
              "type": "string"
            },
            {
              "internalType": "uint256",
              "name": "itemSupply",
              "type": "uint256"
            }
          ],
          "internalType": "struct AvatarItems.ItemDescription",
          "name": "",
          "type": "tuple"
        }
      ],
      "stateMutability": "view",
      "type": "function"
    },
    {
      "inputs": [
        {
          "internalType": "address",
          "name": "",
          "type": "address"
        }
      ],
      "name": "waitingForResponse",
      "outputs": [
        {
          "internalType": "bool",
          "name": "",
          "type": "bool"
        }
      ],
      "stateMutability": "view",
      "type": "function"
    }
  ],
  "transactionHash": "0x5890da29848f99126f6f2b9ac9ed2ee4e4107d7002094870ecbac100e94a0095",
  "args": [
    "2684",
    "0x8103B0A8A00be2DDC778e6e7eaa21791Cd364625",
    "0x474e34a077df58807dbe9c96d3c009b23b3c6d0cce433e59bbf5b34f823bc56c",
    "2500000",
    "5"
  ],
  "numDeployments": 2,
  "solcInputHash": "b09b210cbac4a32a3fb9419cfde905c4",
  "bytecode": "0x61012060405260016003553480156200001757600080fd5b50604051620062323803806200623283398181016040528101906200003d9190620002da565b836040518060600160405280602881526020016200620a6028913962000069816200015f60201b60201c565b508073ffffffffffffffffffffffffffffffffffffffff1660808173ffffffffffffffffffffffffffffffffffffffff16815250505083600560006101000a81548173ffffffffffffffffffffffffffffffffffffffff021916908373ffffffffffffffffffffffffffffffffffffffff1602179055503373ffffffffffffffffffffffffffffffffffffffff1660a08173ffffffffffffffffffffffffffffffffffffffff16815250508467ffffffffffffffff1660c08167ffffffffffffffff16815250508260e081815250508163ffffffff166101008163ffffffff1681525050806004819055505050505050620006b9565b8060029081620001709190620005d2565b5050565b600080fd5b600067ffffffffffffffff82169050919050565b620001988162000179565b8114620001a457600080fd5b50565b600081519050620001b8816200018d565b92915050565b600073ffffffffffffffffffffffffffffffffffffffff82169050919050565b6000620001eb82620001be565b9050919050565b620001fd81620001de565b81146200020957600080fd5b50565b6000815190506200021d81620001f2565b92915050565b6000819050919050565b620002388162000223565b81146200024457600080fd5b50565b60008151905062000258816200022d565b92915050565b600063ffffffff82169050919050565b62000279816200025e565b81146200028557600080fd5b50565b60008151905062000299816200026e565b92915050565b6000819050919050565b620002b4816200029f565b8114620002c057600080fd5b50565b600081519050620002d481620002a9565b92915050565b600080600080600060a08688031215620002f957620002f862000174565b5b60006200030988828901620001a7565b95505060206200031c888289016200020c565b94505060406200032f8882890162000247565b9350506060620003428882890162000288565b92505060806200035588828901620002c3565b9150509295509295909350565b600081519050919050565b7f4e487b7100000000000000000000000000000000000000000000000000000000600052604160045260246000fd5b7f4e487b7100000000000000000000000000000000000000000000000000000000600052602260045260246000fd5b60006002820490506001821680620003e457607f821691505b602082108103620003fa57620003f96200039c565b5b50919050565b60008190508160005260206000209050919050565b60006020601f8301049050919050565b600082821b905092915050565b600060088302620004647fffffffffffffffffffffffffffffffffffffffffffffffffffffffffffffffff8262000425565b62000470868362000425565b95508019841693508086168417925050509392505050565b6000819050919050565b6000620004b3620004ad620004a7846200029f565b62000488565b6200029f565b9050919050565b6000819050919050565b620004cf8362000492565b620004e7620004de82620004ba565b84845462000432565b825550505050565b600090565b620004fe620004ef565b6200050b818484620004c4565b505050565b5b81811015620005335762000527600082620004f4565b60018101905062000511565b5050565b601f82111562000582576200054c8162000400565b620005578462000415565b8101602085101562000567578190505b6200057f620005768562000415565b83018262000510565b50505b505050565b600082821c905092915050565b6000620005a76000198460080262000587565b1980831691505092915050565b6000620005c2838362000594565b9150826002028217905092915050565b620005dd8262000362565b67ffffffffffffffff811115620005f957620005f86200036d565b5b620006058254620003cb565b6200061282828562000537565b600060209050601f8311600181146200064a576000841562000635578287015190505b620006418582620005b4565b865550620006b1565b601f1984166200065a8662000400565b60005b8281101562000684578489015182556001820191506020850194506020810190506200065d565b86831015620006a45784890151620006a0601f89168262000594565b8355505b6001600288020188555050505b505050505050565b60805160a05160c05160e05161010051615ae9620007216000396000611b3001526000611aec01526000611b0d0152600081816108d1015281816109e301528181610ec2015281816113cf0152611612015260008181610c4a0152610c9e0152615ae96000f3fe608060405234801561001057600080fd5b50600436106102055760003560e01c80635edc480b1161011a578063aae81461116100ad578063e74543b51161007c578063e74543b51461065b578063e8a3d4851461068b578063e985e9c5146106a9578063f242432a146106d9578063fb7e1ad1146106f557610205565b8063aae8146114610599578063ab423882146105c9578063b74fce28146105fb578063e41669db1461062b57610205565b8063716464b3116100e9578063716464b3146105275780637d8450341461054357806390541a111461055f578063a22cb4651461057d57610205565b80635edc480b146104a0578063656bd0ad146104d157806367561d93146104ef5780636a7e76e91461050b57610205565b80631fc8daa41161019d578063434965681161016c57806343496568146103d6578063468fddec146104065780634e1273f414610422578063522700ba146104525780635dacf5f41461048257610205565b80631fc8daa41461033c5780631fe543e31461036c5780632eb2c2d6146103885780634095f281146103a457610205565b806310772462116101d957806310772462146102b657806315104d05146102d4578063163cd411146102f057806316d02d641461030c57610205565b8062fdd58e1461020a57806301ffc9a71461023a5780630b6af4991461026a5780630e89341c14610286575b600080fd5b610224600480360381019061021f919061373c565b610725565b604051610231919061378b565b60405180910390f35b610254600480360381019061024f91906137fe565b6107ed565b6040516102619190613846565b60405180910390f35b610284600480360381019061027f9190613861565b6108cf565b005b6102a0600480360381019061029b9190613861565b6109aa565b6040516102ad919061391e565b60405180910390f35b6102be6109db565b6040516102cb919061378b565b60405180910390f35b6102ee60048036038101906102e99190613a75565b6109e1565b005b61030a6004803603810190610305919061373c565b610ae9565b005b61032660048036038101906103219190613ae4565b610c10565b604051610333919061378b565b60405180910390f35b61035660048036038101906103519190613ae4565b610c28565b6040516103639190613846565b60405180910390f35b61038660048036038101906103819190613bd9565b610c48565b005b6103a2600480360381019061039d9190613cd6565b610d08565b005b6103be60048036038101906103b99190613ae4565b610da9565b6040516103cd93929190613da5565b60405180910390f35b6103f060048036038101906103eb9190613ae4565b610dd3565b6040516103fd919061378b565b60405180910390f35b610420600480360381019061041b9190613e01565b610ec0565b005b61043c60048036038101906104379190613f33565b6110e7565b6040516104499190614069565b60405180910390f35b61046c60048036038101906104679190613861565b611200565b6040516104799190614112565b60405180910390f35b61048a6112c9565b60405161049791906141ec565b60405180910390f35b6104ba60048036038101906104b59190613861565b61131b565b6040516104c8929190614207565b60405180910390f35b6104d96113c7565b6040516104e6919061378b565b60405180910390f35b61050960048036038101906105049190613ae4565b6113cd565b005b61052560048036038101906105209190614237565b6114b6565b005b610541600480360381019061053c919061428a565b611610565b005b61055d60048036038101906105589190613861565b611712565b005b610567611813565b604051610574919061378b565b60405180910390f35b610597600480360381019061059291906142f6565b611818565b005b6105b360048036038101906105ae9190613ae4565b61182e565b6040516105c09190613846565b60405180910390f35b6105e360048036038101906105de9190613861565b61184e565b6040516105f293929190614336565b60405180910390f35b61061560048036038101906106109190613ae4565b611900565b604051610622919061378b565b60405180910390f35b61064560048036038101906106409190614374565b611cb3565b604051610652919061378b565b60405180910390f35b61067560048036038101906106709190613861565b611ce4565b60405161068291906143c3565b60405180910390f35b610693611d17565b6040516106a0919061391e565b60405180910390f35b6106c360048036038101906106be91906143de565b611d37565b6040516106d09190613846565b60405180910390f35b6106f360048036038101906106ee919061441e565b611dcb565b005b61070f600480360381019061070a91906144b5565b611e6c565b60405161071c9190613846565b60405180910390f35b60008073ffffffffffffffffffffffffffffffffffffffff168373ffffffffffffffffffffffffffffffffffffffff1603610795576040517f08c379a000000000000000000000000000000000000000000000000000000000815260040161078c90614570565b60405180910390fd5b60008083815260200190815260200160002060008473ffffffffffffffffffffffffffffffffffffffff1673ffffffffffffffffffffffffffffffffffffffff16815260200190815260200160002054905092915050565b60007fd9b67a26000000000000000000000000000000000000000000000000000000007bffffffffffffffffffffffffffffffffffffffffffffffffffffffff1916827bffffffffffffffffffffffffffffffffffffffffffffffffffffffff191614806108b857507f0e89341c000000000000000000000000000000000000000000000000000000007bffffffffffffffffffffffffffffffffffffffffffffffffffffffff1916827bffffffffffffffffffffffffffffffffffffffffffffffffffffffff1916145b806108c857506108c782611ee1565b5b9050919050565b7f000000000000000000000000000000000000000000000000000000000000000073ffffffffffffffffffffffffffffffffffffffff163373ffffffffffffffffffffffffffffffffffffffff161461095d576040517f08c379a000000000000000000000000000000000000000000000000000000000815260040161095490614602565b60405180910390fd5b600081116109a0576040517f08c379a00000000000000000000000000000000000000000000000000000000081526004016109979061466e565b60405180910390fd5b8060048190555050565b60606109b582611f4b565b6040516020016109c59190614762565b6040516020818303038152906040529050919050565b60035481565b7f000000000000000000000000000000000000000000000000000000000000000073ffffffffffffffffffffffffffffffffffffffff163373ffffffffffffffffffffffffffffffffffffffff1614610a6f576040517f08c379a0000000000000000000000000000000000000000000000000000000008152600401610a6690614602565b60405180910390fd5b604051806060016040528084815260200183815260200182815250600c600060035481526020019081526020016000206000820151816000019081610ab4919061499b565b50602082015181600101556040820151816002015590505060036000815480929190610adf90614a9c565b9190505550505050565b60011515600860003373ffffffffffffffffffffffffffffffffffffffff1673ffffffffffffffffffffffffffffffffffffffff16815260200190815260200160002060009054906101000a900460ff16151514610b7c576040517f08c379a0000000000000000000000000000000000000000000000000000000008152600401610b7390614b56565b60405180910390fd5b610bab826000610b8b85610dd3565b84610b969190614b76565b60405180602001604052806000815250612019565b8173ffffffffffffffffffffffffffffffffffffffff167f108bfff6e011bf1baf318710fb89a5a2258e9fa5c2c3524b1f5d7e93c3ebf925610bec84610dd3565b83610bf79190614b76565b604051610c04919061378b565b60405180910390a25050565b60096020528060005260406000206000915090505481565b60086020528060005260406000206000915054906101000a900460ff1681565b7f000000000000000000000000000000000000000000000000000000000000000073ffffffffffffffffffffffffffffffffffffffff163373ffffffffffffffffffffffffffffffffffffffff1614610cfa57337f00000000000000000000000000000000000000000000000000000000000000006040517f1cf993f4000000000000000000000000000000000000000000000000000000008152600401610cf1929190614bb8565b60405180910390fd5b610d0482826121c9565b5050565b610d10612734565b73ffffffffffffffffffffffffffffffffffffffff168573ffffffffffffffffffffffffffffffffffffffff161480610d565750610d5585610d50612734565b611d37565b5b610d95576040517f08c379a0000000000000000000000000000000000000000000000000000000008152600401610d8c90614c53565b60405180910390fd5b610da2858585858561273c565b5050505050565b600d6020528060005260406000206000915090508060000154908060010154908060020154905083565b6000600d60008373ffffffffffffffffffffffffffffffffffffffff1673ffffffffffffffffffffffffffffffffffffffff16815260200190815260200160002060010154600d60008473ffffffffffffffffffffffffffffffffffffffff1673ffffffffffffffffffffffffffffffffffffffff16815260200190815260200160002060000154610e659190614c73565b421115610e755760019050610ebb565b600d60008373ffffffffffffffffffffffffffffffffffffffff1673ffffffffffffffffffffffffffffffffffffffff1681526020019081526020016000206002015490505b919050565b7f000000000000000000000000000000000000000000000000000000000000000073ffffffffffffffffffffffffffffffffffffffff163373ffffffffffffffffffffffffffffffffffffffff1614610f4e576040517f08c379a0000000000000000000000000000000000000000000000000000000008152600401610f4590614602565b60405180910390fd5b60001515610f5b83611e6c565b151514610f9d576040517f08c379a0000000000000000000000000000000000000000000000000000000008152600401610f9490614cf3565b60405180910390fd5b60008111610fe0576040517f08c379a0000000000000000000000000000000000000000000000000000000008152600401610fd790614d5f565b60405180910390fd5b604051806040016040528083815260200182815250600760006003548152602001908152602001600020600082015181600001908161101f919061499b565b50602082015181600101559050506006600084600581111561104457611043614d7f565b5b600581111561105657611055614d7f565b5b81526020019081526020016000206003549080600181540180825580915050600190039060005260206000200160009091909190915055600360008154809291906110a090614a9c565b91905055507fe54ad0ab4e12db37ed8635a4aa3069158402f2aa26b35ff2f83a3a29744ed78783600354846040516110da93929190614df6565b60405180910390a1505050565b6060815183511461112d576040517f08c379a000000000000000000000000000000000000000000000000000000000815260040161112490614ea6565b60405180910390fd5b6000835167ffffffffffffffff81111561114a5761114961394a565b5b6040519080825280602002602001820160405280156111785781602001602082028036833780820191505090505b50905060005b84518110156111f5576111c585828151811061119d5761119c614ec6565b5b60200260200101518583815181106111b8576111b7614ec6565b5b6020026020010151610725565b8282815181106111d8576111d7614ec6565b5b602002602001018181525050806111ee90614a9c565b905061117e565b508091505092915050565b611208613658565b60076000838152602001908152602001600020604051806040016040529081600082018054611236906147be565b80601f0160208091040260200160405190810160405280929190818152602001828054611262906147be565b80156112af5780601f10611284576101008083540402835291602001916112af565b820191906000526020600020905b81548152906001019060200180831161129257829003601f168201915b505050505081526020016001820154815250509050919050565b6112d1613672565b6040518060c00160405280600a60ff168152602001601e60ff168152602001603260ff168152602001604460ff168152602001605060ff168152602001606460ff16815250905090565b600760205280600052604060002060009150905080600001805461133e906147be565b80601f016020809104026020016040519081016040528092919081815260200182805461136a906147be565b80156113b75780601f1061138c576101008083540402835291602001916113b7565b820191906000526020600020905b81548152906001019060200180831161139a57829003601f168201915b5050505050908060010154905082565b60045481565b7f000000000000000000000000000000000000000000000000000000000000000073ffffffffffffffffffffffffffffffffffffffff163373ffffffffffffffffffffffffffffffffffffffff161461145b576040517f08c379a000000000000000000000000000000000000000000000000000000000815260040161145290614602565b60405180910390fd5b6001600860008373ffffffffffffffffffffffffffffffffffffffff1673ffffffffffffffffffffffffffffffffffffffff16815260200190815260200160002060006101000a81548160ff02191690831515021790555050565b60011515600860003373ffffffffffffffffffffffffffffffffffffffff1673ffffffffffffffffffffffffffffffffffffffff16815260200190815260200160002060009054906101000a900460ff16151514611549576040517f08c379a000000000000000000000000000000000000000000000000000000000815260040161154090614b56565b60405180910390fd5b6000600c600084815260200190815260200160002060020154116115a2576040517f08c379a000000000000000000000000000000000000000000000000000000000815260040161159990614f41565b60405180910390fd5b6115bd83838360405180602001604052806000815250612019565b8273ffffffffffffffffffffffffffffffffffffffff167f0d90dea30b4bae9352e47adc9d39d4de9aeeb268caef263e484254df0842dd8f83604051611603919061378b565b60405180910390a2505050565b7f000000000000000000000000000000000000000000000000000000000000000073ffffffffffffffffffffffffffffffffffffffff163373ffffffffffffffffffffffffffffffffffffffff161461169e576040517f08c379a000000000000000000000000000000000000000000000000000000000815260040161169590614602565b60405180910390fd5b600081116116e1576040517f08c379a00000000000000000000000000000000000000000000000000000000081526004016116d890614d5f565b60405180910390fd5b806007600084815260200190815260200160002060010160008282546117079190614c73565b925050819055505050565b600161171d33610dd3565b1461175d576040517f08c379a000000000000000000000000000000000000000000000000000000000815260040161175490614fad565b60405180910390fd5b61176933826001612a5d565b6040518060600160405280428152602001600c6000848152602001908152602001600020600201548152602001600c600084815260200190815260200160002060010154815250600d60003373ffffffffffffffffffffffffffffffffffffffff1673ffffffffffffffffffffffffffffffffffffffff16815260200190815260200160002060008201518160000155602082015181600101556040820151816002015590505050565b600081565b61182a611823612734565b8383612ca3565b5050565b600b6020528060005260406000206000915054906101000a900460ff1681565b600c602052806000526040600020600091509050806000018054611871906147be565b80601f016020809104026020016040519081016040528092919081815260200182805461189d906147be565b80156118ea5780601f106118bf576101008083540402835291602001916118ea565b820191906000526020600020905b8154815290600101906020018083116118cd57829003601f168201915b5050505050908060010154908060020154905083565b6000801515600b60008473ffffffffffffffffffffffffffffffffffffffff1673ffffffffffffffffffffffffffffffffffffffff16815260200190815260200160002060009054906101000a900460ff16151514611994576040517f08c379a000000000000000000000000000000000000000000000000000000000815260040161198b9061503f565b60405180910390fd5b6064600960008473ffffffffffffffffffffffffffffffffffffffff1673ffffffffffffffffffffffffffffffffffffffff1681526020019081526020016000205460646119e2919061505f565b6004546119ef9190614b76565b6119f991906150c2565b611a04836000610725565b1015611a3c576040517fef56c0c500000000000000000000000000000000000000000000000000000000815260040160405180910390fd5b611aac8260006064600960008773ffffffffffffffffffffffffffffffffffffffff1673ffffffffffffffffffffffffffffffffffffffff168152602001908152602001600020546064611a90919061505f565b600454611a9d9190614b76565b611aa791906150c2565b612a5d565b600560009054906101000a900473ffffffffffffffffffffffffffffffffffffffff1673ffffffffffffffffffffffffffffffffffffffff16635d3b1d307f00000000000000000000000000000000000000000000000000000000000000007f000000000000000000000000000000000000000000000000000000000000000060037f000000000000000000000000000000000000000000000000000000000000000060026040518663ffffffff1660e01b8152600401611b7195949392919061516b565b6020604051808303816000875af1158015611b90573d6000803e3d6000fd5b505050506040513d601f19601f82011682018060405250810190611bb491906151d3565b905081600a600083815260200190815260200160002060006101000a81548173ffffffffffffffffffffffffffffffffffffffff021916908373ffffffffffffffffffffffffffffffffffffffff1602179055506001600b60008473ffffffffffffffffffffffffffffffffffffffff1673ffffffffffffffffffffffffffffffffffffffff16815260200190815260200160002060006101000a81548160ff0219169083151502179055508173ffffffffffffffffffffffffffffffffffffffff167f6996b236aa85c535db5df7b3cb8925ac9a6758d1550035bc5aa25e790b0f12ca82604051611ca6919061378b565b60405180910390a2919050565b60066020528160005260406000208181548110611ccf57600080fd5b90600052602060002001600091509150505481565b600a6020528060005260406000206000915054906101000a900473ffffffffffffffffffffffffffffffffffffffff1681565b60606040518060600160405280602e8152602001615a86602e9139905090565b6000600160008473ffffffffffffffffffffffffffffffffffffffff1673ffffffffffffffffffffffffffffffffffffffff16815260200190815260200160002060008373ffffffffffffffffffffffffffffffffffffffff1673ffffffffffffffffffffffffffffffffffffffff16815260200190815260200160002060009054906101000a900460ff16905092915050565b611dd3612734565b73ffffffffffffffffffffffffffffffffffffffff168573ffffffffffffffffffffffffffffffffffffffff161480611e195750611e1885611e13612734565b611d37565b5b611e58576040517f08c379a0000000000000000000000000000000000000000000000000000000008152600401611e4f90614c53565b60405180910390fd5b611e658585858585612e0f565b5050505050565b600080600090506000600190505b6003548111611ed757838051906020012060076000838152602001908152602001600020600001604051611eae91906152a3565b604051809103902003611ec45760019150611ed7565b8080611ecf90614a9c565b915050611e7a565b5080915050919050565b60007f01ffc9a7000000000000000000000000000000000000000000000000000000007bffffffffffffffffffffffffffffffffffffffffffffffffffffffff1916827bffffffffffffffffffffffffffffffffffffffffffffffffffffffff1916149050919050565b606060006001611f5a846130aa565b01905060008167ffffffffffffffff811115611f7957611f7861394a565b5b6040519080825280601f01601f191660200182016040528015611fab5781602001600182028036833780820191505090505b509050600082602001820190505b60011561200e578080600190039150507f3031323334353637383961626364656600000000000000000000000000000000600a86061a8153600a858161200257612001615093565b5b04945060008503611fb9575b819350505050919050565b600073ffffffffffffffffffffffffffffffffffffffff168473ffffffffffffffffffffffffffffffffffffffff1603612088576040517f08c379a000000000000000000000000000000000000000000000000000000000815260040161207f9061532c565b60405180910390fd5b6000612092612734565b9050600061209f856131fd565b905060006120ac856131fd565b90506120bd83600089858589613277565b8460008088815260200190815260200160002060008973ffffffffffffffffffffffffffffffffffffffff1673ffffffffffffffffffffffffffffffffffffffff168152602001908152602001600020600082825461211c9190614c73565b925050819055508673ffffffffffffffffffffffffffffffffffffffff16600073ffffffffffffffffffffffffffffffffffffffff168473ffffffffffffffffffffffffffffffffffffffff167fc3d58168c5ae7397731d063d5bbf3d657854427343f4c083240f7aacaa2d0f62898960405161219a92919061534c565b60405180910390a46121b18360008985858961327f565b6121c083600089898989613287565b50505050505050565b600060016063836000815181106121e3576121e2614ec6565b5b60200260200101516121f59190615375565b6121ff9190614c73565b90506000808061220d6112c9565b905060005b6006811015612292578385118015612243575081816006811061223857612237614ec6565b5b602002015160ff1685105b156122625780600581111561225b5761225a614d7f565b5b9250612292565b81816006811061227557612274614ec6565b5b602002015160ff169350808061228a90614a9c565b915050612212565b50600080600090505b600660008560058111156122b2576122b1614d7f565b5b60058111156122c4576122c3614d7f565b5b8152602001908152602001600020805490508110156123675760076000600660008760058111156122f8576122f7614d7f565b5b600581111561230a57612309614d7f565b5b8152602001908152602001600020838154811061232a57612329614ec6565b5b9060005260206000200154815260200190815260200160002060010154826123529190614c73565b9150808061235f90614a9c565b91505061229b565b5060006001828860018151811061238157612380614ec6565b5b60200260200101516123939190615375565b61239d9190614c73565b905060008080600090505b600660008860058111156123bf576123be614d7f565b5b60058111156123d1576123d0614d7f565b5b8152602001908152602001600020805490508110156125ca57600060076000600660008b600581111561240757612406614d7f565b5b600581111561241957612418614d7f565b5b8152602001908152602001600020848154811061243957612438614ec6565b5b906000526020600020015481526020019081526020016000206001015403156125b75782841180156124df57508260076000600660008b600581111561248257612481614d7f565b5b600581111561249457612493614d7f565b5b815260200190815260200160002084815481106124b4576124b3614ec6565b5b90600052602060002001548152602001908152602001600020600101546124db9190614c73565b8411155b1561253f57600660008860058111156124fb576124fa614d7f565b5b600581111561250d5761250c614d7f565b5b8152602001908152602001600020818154811061252d5761252c614ec6565b5b906000526020600020015491506125ca565b60076000600660008a600581111561255a57612559614d7f565b5b600581111561256c5761256b614d7f565b5b8152602001908152602001600020838154811061258c5761258b614ec6565b5b9060005260206000200154815260200190815260200160002060010154836125b49190614c73565b92505b80806125c290614a9c565b9150506123a8565b5061261a600a60008c815260200190815260200160002060009054906101000a900473ffffffffffffffffffffffffffffffffffffffff1682600160405180602001604052806000815250612019565b6000600b6000600a60008e815260200190815260200160002060009054906101000a900473ffffffffffffffffffffffffffffffffffffffff1673ffffffffffffffffffffffffffffffffffffffff1673ffffffffffffffffffffffffffffffffffffffff16815260200190815260200160002060006101000a81548160ff021916908315150217905550600a60008b815260200190815260200160002060009054906101000a900473ffffffffffffffffffffffffffffffffffffffff1673ffffffffffffffffffffffffffffffffffffffff167f8eaeacc1f9ab5e04d365d1740e87ccbd0e2950aecca456459ee501ff7438dfbe8b8360405161272092919061534c565b60405180910390a250505050505050505050565b600033905090565b8151835114612780576040517f08c379a000000000000000000000000000000000000000000000000000000000815260040161277790615418565b60405180910390fd5b600073ffffffffffffffffffffffffffffffffffffffff168473ffffffffffffffffffffffffffffffffffffffff16036127ef576040517f08c379a00000000000000000000000000000000000000000000000000000000081526004016127e6906154aa565b60405180910390fd5b60006127f9612734565b9050612809818787878787613277565b60005b84518110156129ba57600085828151811061282a57612829614ec6565b5b60200260200101519050600085838151811061284957612848614ec6565b5b60200260200101519050600080600084815260200190815260200160002060008b73ffffffffffffffffffffffffffffffffffffffff1673ffffffffffffffffffffffffffffffffffffffff168152602001908152602001600020549050818110156128ea576040517f08c379a00000000000000000000000000000000000000000000000000000000081526004016128e19061553c565b60405180910390fd5b81810360008085815260200190815260200160002060008c73ffffffffffffffffffffffffffffffffffffffff1673ffffffffffffffffffffffffffffffffffffffff168152602001908152602001600020819055508160008085815260200190815260200160002060008b73ffffffffffffffffffffffffffffffffffffffff1673ffffffffffffffffffffffffffffffffffffffff168152602001908152602001600020600082825461299f9190614c73565b92505081905550505050806129b390614a9c565b905061280c565b508473ffffffffffffffffffffffffffffffffffffffff168673ffffffffffffffffffffffffffffffffffffffff168273ffffffffffffffffffffffffffffffffffffffff167f4a39dc06d4c0dbc64b70af90fd698a233a518aa5d07e595d983b8c0526c8f7fb8787604051612a3192919061555c565b60405180910390a4612a4781878787878761327f565b612a5581878787878761345e565b505050505050565b600073ffffffffffffffffffffffffffffffffffffffff168373ffffffffffffffffffffffffffffffffffffffff1603612acc576040517f08c379a0000000000000000000000000000000000000000000000000000000008152600401612ac390615605565b60405180910390fd5b6000612ad6612734565b90506000612ae3846131fd565b90506000612af0846131fd565b9050612b1083876000858560405180602001604052806000815250613277565b600080600087815260200190815260200160002060008873ffffffffffffffffffffffffffffffffffffffff1673ffffffffffffffffffffffffffffffffffffffff16815260200190815260200160002054905084811015612ba7576040517f08c379a0000000000000000000000000000000000000000000000000000000008152600401612b9e90615697565b60405180910390fd5b84810360008088815260200190815260200160002060008973ffffffffffffffffffffffffffffffffffffffff1673ffffffffffffffffffffffffffffffffffffffff16815260200190815260200160002081905550600073ffffffffffffffffffffffffffffffffffffffff168773ffffffffffffffffffffffffffffffffffffffff168573ffffffffffffffffffffffffffffffffffffffff167fc3d58168c5ae7397731d063d5bbf3d657854427343f4c083240f7aacaa2d0f628989604051612c7492919061534c565b60405180910390a4612c9a8488600086866040518060200160405280600081525061327f565b50505050505050565b8173ffffffffffffffffffffffffffffffffffffffff168373ffffffffffffffffffffffffffffffffffffffff1603612d11576040517f08c379a0000000000000000000000000000000000000000000000000000000008152600401612d0890615729565b60405180910390fd5b80600160008573ffffffffffffffffffffffffffffffffffffffff1673ffffffffffffffffffffffffffffffffffffffff16815260200190815260200160002060008473ffffffffffffffffffffffffffffffffffffffff1673ffffffffffffffffffffffffffffffffffffffff16815260200190815260200160002060006101000a81548160ff0219169083151502179055508173ffffffffffffffffffffffffffffffffffffffff168373ffffffffffffffffffffffffffffffffffffffff167f17307eab39ab6107e8899845ad3d59bd9653f200f220920489ca2b5937696c3183604051612e029190613846565b60405180910390a3505050565b600073ffffffffffffffffffffffffffffffffffffffff168473ffffffffffffffffffffffffffffffffffffffff1603612e7e576040517f08c379a0000000000000000000000000000000000000000000000000000000008152600401612e75906154aa565b60405180910390fd5b6000612e88612734565b90506000612e95856131fd565b90506000612ea2856131fd565b9050612eb2838989858589613277565b600080600088815260200190815260200160002060008a73ffffffffffffffffffffffffffffffffffffffff1673ffffffffffffffffffffffffffffffffffffffff16815260200190815260200160002054905085811015612f49576040517f08c379a0000000000000000000000000000000000000000000000000000000008152600401612f409061553c565b60405180910390fd5b85810360008089815260200190815260200160002060008b73ffffffffffffffffffffffffffffffffffffffff1673ffffffffffffffffffffffffffffffffffffffff168152602001908152602001600020819055508560008089815260200190815260200160002060008a73ffffffffffffffffffffffffffffffffffffffff1673ffffffffffffffffffffffffffffffffffffffff1681526020019081526020016000206000828254612ffe9190614c73565b925050819055508773ffffffffffffffffffffffffffffffffffffffff168973ffffffffffffffffffffffffffffffffffffffff168573ffffffffffffffffffffffffffffffffffffffff167fc3d58168c5ae7397731d063d5bbf3d657854427343f4c083240f7aacaa2d0f628a8a60405161307b92919061534c565b60405180910390a4613091848a8a86868a61327f565b61309f848a8a8a8a8a613287565b505050505050505050565b600080600090507a184f03e93ff9f4daa797ed6e38ed64bf6a1f0100000000000000008310613108577a184f03e93ff9f4daa797ed6e38ed64bf6a1f01000000000000000083816130fe576130fd615093565b5b0492506040810190505b6d04ee2d6d415b85acef81000000008310613145576d04ee2d6d415b85acef8100000000838161313b5761313a615093565b5b0492506020810190505b662386f26fc10000831061317457662386f26fc10000838161316a57613169615093565b5b0492506010810190505b6305f5e100831061319d576305f5e100838161319357613192615093565b5b0492506008810190505b61271083106131c25761271083816131b8576131b7615093565b5b0492506004810190505b606483106131e557606483816131db576131da615093565b5b0492506002810190505b600a83106131f4576001810190505b80915050919050565b60606000600167ffffffffffffffff81111561321c5761321b61394a565b5b60405190808252806020026020018201604052801561324a5781602001602082028036833780820191505090505b509050828160008151811061326257613261614ec6565b5b60200260200101818152505080915050919050565b505050505050565b505050505050565b6132a68473ffffffffffffffffffffffffffffffffffffffff16613635565b15613456578373ffffffffffffffffffffffffffffffffffffffff1663f23a6e6187878686866040518663ffffffff1660e01b81526004016132ec95949392919061579e565b6020604051808303816000875af192505050801561332857506040513d601f19601f82011682018060405250810190613325919061580d565b60015b6133cd57613334615847565b806308c379a0036133905750613348615869565b806133535750613392565b806040517f08c379a0000000000000000000000000000000000000000000000000000000008152600401613387919061391e565b60405180910390fd5b505b6040517f08c379a00000000000000000000000000000000000000000000000000000000081526004016133c49061596b565b60405180910390fd5b63f23a6e6160e01b7bffffffffffffffffffffffffffffffffffffffffffffffffffffffff1916817bffffffffffffffffffffffffffffffffffffffffffffffffffffffff191614613454576040517f08c379a000000000000000000000000000000000000000000000000000000000815260040161344b906159fd565b60405180910390fd5b505b505050505050565b61347d8473ffffffffffffffffffffffffffffffffffffffff16613635565b1561362d578373ffffffffffffffffffffffffffffffffffffffff1663bc197c8187878686866040518663ffffffff1660e01b81526004016134c3959493929190615a1d565b6020604051808303816000875af19250505080156134ff57506040513d601f19601f820116820180604052508101906134fc919061580d565b60015b6135a45761350b615847565b806308c379a003613567575061351f615869565b8061352a5750613569565b806040517f08c379a000000000000000000000000000000000000000000000000000000000815260040161355e919061391e565b60405180910390fd5b505b6040517f08c379a000000000000000000000000000000000000000000000000000000000815260040161359b9061596b565b60405180910390fd5b63bc197c8160e01b7bffffffffffffffffffffffffffffffffffffffffffffffffffffffff1916817bffffffffffffffffffffffffffffffffffffffffffffffffffffffff19161461362b576040517f08c379a0000000000000000000000000000000000000000000000000000000008152600401613622906159fd565b60405180910390fd5b505b505050505050565b6000808273ffffffffffffffffffffffffffffffffffffffff163b119050919050565b604051806040016040528060608152602001600081525090565b6040518060c00160405280600690602082028036833780820191505090505090565b6000604051905090565b600080fd5b600080fd5b600073ffffffffffffffffffffffffffffffffffffffff82169050919050565b60006136d3826136a8565b9050919050565b6136e3816136c8565b81146136ee57600080fd5b50565b600081359050613700816136da565b92915050565b6000819050919050565b61371981613706565b811461372457600080fd5b50565b60008135905061373681613710565b92915050565b600080604083850312156137535761375261369e565b5b6000613761858286016136f1565b925050602061377285828601613727565b9150509250929050565b61378581613706565b82525050565b60006020820190506137a0600083018461377c565b92915050565b60007fffffffff0000000000000000000000000000000000000000000000000000000082169050919050565b6137db816137a6565b81146137e657600080fd5b50565b6000813590506137f8816137d2565b92915050565b6000602082840312156138145761381361369e565b5b6000613822848285016137e9565b91505092915050565b60008115159050919050565b6138408161382b565b82525050565b600060208201905061385b6000830184613837565b92915050565b6000602082840312156138775761387661369e565b5b600061388584828501613727565b91505092915050565b600081519050919050565b600082825260208201905092915050565b60005b838110156138c85780820151818401526020810190506138ad565b60008484015250505050565b6000601f19601f8301169050919050565b60006138f08261388e565b6138fa8185613899565b935061390a8185602086016138aa565b613913816138d4565b840191505092915050565b6000602082019050818103600083015261393881846138e5565b905092915050565b600080fd5b600080fd5b7f4e487b7100000000000000000000000000000000000000000000000000000000600052604160045260246000fd5b613982826138d4565b810181811067ffffffffffffffff821117156139a1576139a061394a565b5b80604052505050565b60006139b4613694565b90506139c08282613979565b919050565b600067ffffffffffffffff8211156139e0576139df61394a565b5b6139e9826138d4565b9050602081019050919050565b82818337600083830152505050565b6000613a18613a13846139c5565b6139aa565b905082815260208101848484011115613a3457613a33613945565b5b613a3f8482856139f6565b509392505050565b600082601f830112613a5c57613a5b613940565b5b8135613a6c848260208601613a05565b91505092915050565b600080600060608486031215613a8e57613a8d61369e565b5b600084013567ffffffffffffffff811115613aac57613aab6136a3565b5b613ab886828701613a47565b9350506020613ac986828701613727565b9250506040613ada86828701613727565b9150509250925092565b600060208284031215613afa57613af961369e565b5b6000613b08848285016136f1565b91505092915050565b600067ffffffffffffffff821115613b2c57613b2b61394a565b5b602082029050602081019050919050565b600080fd5b6000613b55613b5084613b11565b6139aa565b90508083825260208201905060208402830185811115613b7857613b77613b3d565b5b835b81811015613ba15780613b8d8882613727565b845260208401935050602081019050613b7a565b5050509392505050565b600082601f830112613bc057613bbf613940565b5b8135613bd0848260208601613b42565b91505092915050565b60008060408385031215613bf057613bef61369e565b5b6000613bfe85828601613727565b925050602083013567ffffffffffffffff811115613c1f57613c1e6136a3565b5b613c2b85828601613bab565b9150509250929050565b600067ffffffffffffffff821115613c5057613c4f61394a565b5b613c59826138d4565b9050602081019050919050565b6000613c79613c7484613c35565b6139aa565b905082815260208101848484011115613c9557613c94613945565b5b613ca08482856139f6565b509392505050565b600082601f830112613cbd57613cbc613940565b5b8135613ccd848260208601613c66565b91505092915050565b600080600080600060a08688031215613cf257613cf161369e565b5b6000613d00888289016136f1565b9550506020613d11888289016136f1565b945050604086013567ffffffffffffffff811115613d3257613d316136a3565b5b613d3e88828901613bab565b935050606086013567ffffffffffffffff811115613d5f57613d5e6136a3565b5b613d6b88828901613bab565b925050608086013567ffffffffffffffff811115613d8c57613d8b6136a3565b5b613d9888828901613ca8565b9150509295509295909350565b6000606082019050613dba600083018661377c565b613dc7602083018561377c565b613dd4604083018461377c565b949350505050565b60068110613de957600080fd5b50565b600081359050613dfb81613ddc565b92915050565b600080600060608486031215613e1a57613e1961369e565b5b6000613e2886828701613dec565b935050602084013567ffffffffffffffff811115613e4957613e486136a3565b5b613e5586828701613a47565b9250506040613e6686828701613727565b9150509250925092565b600067ffffffffffffffff821115613e8b57613e8a61394a565b5b602082029050602081019050919050565b6000613eaf613eaa84613e70565b6139aa565b90508083825260208201905060208402830185811115613ed257613ed1613b3d565b5b835b81811015613efb5780613ee788826136f1565b845260208401935050602081019050613ed4565b5050509392505050565b600082601f830112613f1a57613f19613940565b5b8135613f2a848260208601613e9c565b91505092915050565b60008060408385031215613f4a57613f4961369e565b5b600083013567ffffffffffffffff811115613f6857613f676136a3565b5b613f7485828601613f05565b925050602083013567ffffffffffffffff811115613f9557613f946136a3565b5b613fa185828601613bab565b9150509250929050565b600081519050919050565b600082825260208201905092915050565b6000819050602082019050919050565b613fe081613706565b82525050565b6000613ff28383613fd7565b60208301905092915050565b6000602082019050919050565b600061401682613fab565b6140208185613fb6565b935061402b83613fc7565b8060005b8381101561405c5781516140438882613fe6565b975061404e83613ffe565b92505060018101905061402f565b5085935050505092915050565b60006020820190508181036000830152614083818461400b565b905092915050565b600082825260208201905092915050565b60006140a78261388e565b6140b1818561408b565b93506140c18185602086016138aa565b6140ca816138d4565b840191505092915050565b600060408301600083015184820360008601526140f2828261409c565b91505060208301516141076020860182613fd7565b508091505092915050565b6000602082019050818103600083015261412c81846140d5565b905092915050565b600060069050919050565b600081905092915050565b6000819050919050565b600060ff82169050919050565b61416a81614154565b82525050565b600061417c8383614161565b60208301905092915050565b6000602082019050919050565b61419e81614134565b6141a8818461413f565b92506141b38261414a565b8060005b838110156141e45781516141cb8782614170565b96506141d683614188565b9250506001810190506141b7565b505050505050565b600060c0820190506142016000830184614195565b92915050565b6000604082019050818103600083015261422181856138e5565b9050614230602083018461377c565b9392505050565b6000806000606084860312156142505761424f61369e565b5b600061425e868287016136f1565b935050602061426f86828701613727565b925050604061428086828701613727565b9150509250925092565b600080604083850312156142a1576142a061369e565b5b60006142af85828601613727565b92505060206142c085828601613727565b9150509250929050565b6142d38161382b565b81146142de57600080fd5b50565b6000813590506142f0816142ca565b92915050565b6000806040838503121561430d5761430c61369e565b5b600061431b858286016136f1565b925050602061432c858286016142e1565b9150509250929050565b6000606082019050818103600083015261435081866138e5565b905061435f602083018561377c565b61436c604083018461377c565b949350505050565b6000806040838503121561438b5761438a61369e565b5b600061439985828601613dec565b92505060206143aa85828601613727565b9150509250929050565b6143bd816136c8565b82525050565b60006020820190506143d860008301846143b4565b92915050565b600080604083850312156143f5576143f461369e565b5b6000614403858286016136f1565b9250506020614414858286016136f1565b9150509250929050565b600080600080600060a0868803121561443a5761443961369e565b5b6000614448888289016136f1565b9550506020614459888289016136f1565b945050604061446a88828901613727565b935050606061447b88828901613727565b925050608086013567ffffffffffffffff81111561449c5761449b6136a3565b5b6144a888828901613ca8565b9150509295509295909350565b6000602082840312156144cb576144ca61369e565b5b600082013567ffffffffffffffff8111156144e9576144e86136a3565b5b6144f584828501613a47565b91505092915050565b7f455243313135353a2061646472657373207a65726f206973206e6f742061207660008201527f616c6964206f776e657200000000000000000000000000000000000000000000602082015250565b600061455a602a83613899565b9150614565826144fe565b604082019050919050565b600060208201905081810360008301526145898161454d565b9050919050565b7f546865206164647265737320646f65736e742068617665207065726d6973736960008201527f6f6e20746f2063616c6c20746869732066756e6374696f6e0000000000000000602082015250565b60006145ec603883613899565b91506145f782614590565b604082019050919050565b6000602082019050818103600083015261461b816145df565b9050919050565b7f5061636b2070726963652063616e277420626520300000000000000000000000600082015250565b6000614658601583613899565b915061466382614622565b602082019050919050565b600060208201905081810360008301526146878161464b565b9050919050565b600081905092915050565b7f68747470733a2f2f697066732e696f2f484153485f484552452f000000000000600082015250565b60006146cf601a8361468e565b91506146da82614699565b601a82019050919050565b60006146f08261388e565b6146fa818561468e565b935061470a8185602086016138aa565b80840191505092915050565b7f2e6a736f6e000000000000000000000000000000000000000000000000000000600082015250565b600061474c60058361468e565b915061475782614716565b600582019050919050565b600061476d826146c2565b915061477982846146e5565b91506147848261473f565b915081905092915050565b7f4e487b7100000000000000000000000000000000000000000000000000000000600052602260045260246000fd5b600060028204905060018216806147d657607f821691505b6020821081036147e9576147e861478f565b5b50919050565b60008190508160005260206000209050919050565b60006020601f8301049050919050565b600082821b905092915050565b6000600883026148517fffffffffffffffffffffffffffffffffffffffffffffffffffffffffffffffff82614814565b61485b8683614814565b95508019841693508086168417925050509392505050565b6000819050919050565b600061489861489361488e84613706565b614873565b613706565b9050919050565b6000819050919050565b6148b28361487d565b6148c66148be8261489f565b848454614821565b825550505050565b600090565b6148db6148ce565b6148e68184846148a9565b505050565b5b8181101561490a576148ff6000826148d3565b6001810190506148ec565b5050565b601f82111561494f57614920816147ef565b61492984614804565b81016020851015614938578190505b61494c61494485614804565b8301826148eb565b50505b505050565b600082821c905092915050565b600061497260001984600802614954565b1980831691505092915050565b600061498b8383614961565b9150826002028217905092915050565b6149a48261388e565b67ffffffffffffffff8111156149bd576149bc61394a565b5b6149c782546147be565b6149d282828561490e565b600060209050601f831160018114614a0557600084156149f3578287015190505b6149fd858261497f565b865550614a65565b601f198416614a13866147ef565b60005b82811015614a3b57848901518255600182019150602085019450602081019050614a16565b86831015614a585784890151614a54601f891682614961565b8355505b6001600288020188555050505b505050505050565b7f4e487b7100000000000000000000000000000000000000000000000000000000600052601160045260246000fd5b6000614aa782613706565b91507fffffffffffffffffffffffffffffffffffffffffffffffffffffffffffffffff8203614ad957614ad8614a6d565b5b600182019050919050565b7f5468652061646472657373206973206e6f742070617274206f6620617574686f60008201527f72697a656420636f6e7472616374730000000000000000000000000000000000602082015250565b6000614b40602f83613899565b9150614b4b82614ae4565b604082019050919050565b60006020820190508181036000830152614b6f81614b33565b9050919050565b6000614b8182613706565b9150614b8c83613706565b9250828202614b9a81613706565b91508282048414831517614bb157614bb0614a6d565b5b5092915050565b6000604082019050614bcd60008301856143b4565b614bda60208301846143b4565b9392505050565b7f455243313135353a2063616c6c6572206973206e6f7420746f6b656e206f776e60008201527f6572206f7220617070726f766564000000000000000000000000000000000000602082015250565b6000614c3d602e83613899565b9150614c4882614be1565b604082019050919050565b60006020820190508181036000830152614c6c81614c30565b9050919050565b6000614c7e82613706565b9150614c8983613706565b9250828201905080821115614ca157614ca0614a6d565b5b92915050565b7f54686973206974656d20616c7265616479206578697374730000000000000000600082015250565b6000614cdd601883613899565b9150614ce882614ca7565b602082019050919050565b60006020820190508181036000830152614d0c81614cd0565b9050919050565b7f4974656d206d7573742068617665206974656d20537570706c79000000000000600082015250565b6000614d49601a83613899565b9150614d5482614d13565b602082019050919050565b60006020820190508181036000830152614d7881614d3c565b9050919050565b7f4e487b7100000000000000000000000000000000000000000000000000000000600052602160045260246000fd5b60068110614dbf57614dbe614d7f565b5b50565b6000819050614dd082614dae565b919050565b6000614de082614dc2565b9050919050565b614df081614dd5565b82525050565b6000606082019050614e0b6000830186614de7565b614e18602083018561377c565b8181036040830152614e2a81846138e5565b9050949350505050565b7f455243313135353a206163636f756e747320616e6420696473206c656e67746860008201527f206d69736d617463680000000000000000000000000000000000000000000000602082015250565b6000614e90602983613899565b9150614e9b82614e34565b604082019050919050565b60006020820190508181036000830152614ebf81614e83565b9050919050565b7f4e487b7100000000000000000000000000000000000000000000000000000000600052603260045260246000fd5b7f5468697320706f7765725570206973206e6f7420617661696c61626c65000000600082015250565b6000614f2b601d83613899565b9150614f3682614ef5565b602082019050919050565b60006020820190508181036000830152614f5a81614f1e565b9050919050565b7f546865206c61737420706f7765727570206973207374696c6c206f6e21000000600082015250565b6000614f97601d83613899565b9150614fa282614f61565b602082019050919050565b60006020820190508181036000830152614fc681614f8a565b9050919050565b7f54686520616464726573732069732077616974696e6720666f7220726573706f60008201527f6e73650000000000000000000000000000000000000000000000000000000000602082015250565b6000615029602383613899565b915061503482614fcd565b604082019050919050565b600060208201905081810360008301526150588161501c565b9050919050565b600061506a82613706565b915061507583613706565b925082820390508181111561508d5761508c614a6d565b5b92915050565b7f4e487b7100000000000000000000000000000000000000000000000000000000600052601260045260246000fd5b60006150cd82613706565b91506150d883613706565b9250826150e8576150e7615093565b5b828204905092915050565b6000819050919050565b615106816150f3565b82525050565b600067ffffffffffffffff82169050919050565b6151298161510c565b82525050565b600061ffff82169050919050565b6151468161512f565b82525050565b600063ffffffff82169050919050565b6151658161514c565b82525050565b600060a08201905061518060008301886150fd565b61518d6020830187615120565b61519a604083018661513d565b6151a7606083018561515c565b6151b4608083018461515c565b9695505050505050565b6000815190506151cd81613710565b92915050565b6000602082840312156151e9576151e861369e565b5b60006151f7848285016151be565b91505092915050565b600081905092915050565b60008190508160005260206000209050919050565b6000815461522d816147be565b6152378186615200565b9450600182166000811461525257600181146152675761529a565b60ff198316865281151582028601935061529a565b6152708561520b565b60005b8381101561529257815481890152600182019150602081019050615273565b838801955050505b50505092915050565b60006152af8284615220565b915081905092915050565b7f455243313135353a206d696e7420746f20746865207a65726f2061646472657360008201527f7300000000000000000000000000000000000000000000000000000000000000602082015250565b6000615316602183613899565b9150615321826152ba565b604082019050919050565b6000602082019050818103600083015261534581615309565b9050919050565b6000604082019050615361600083018561377c565b61536e602083018461377c565b9392505050565b600061538082613706565b915061538b83613706565b92508261539b5761539a615093565b5b828206905092915050565b7f455243313135353a2069647320616e6420616d6f756e7473206c656e6774682060008201527f6d69736d61746368000000000000000000000000000000000000000000000000602082015250565b6000615402602883613899565b915061540d826153a6565b604082019050919050565b60006020820190508181036000830152615431816153f5565b9050919050565b7f455243313135353a207472616e7366657220746f20746865207a65726f20616460008201527f6472657373000000000000000000000000000000000000000000000000000000602082015250565b6000615494602583613899565b915061549f82615438565b604082019050919050565b600060208201905081810360008301526154c381615487565b9050919050565b7f455243313135353a20696e73756666696369656e742062616c616e636520666f60008201527f72207472616e7366657200000000000000000000000000000000000000000000602082015250565b6000615526602a83613899565b9150615531826154ca565b604082019050919050565b6000602082019050818103600083015261555581615519565b9050919050565b60006040820190508181036000830152615576818561400b565b9050818103602083015261558a818461400b565b90509392505050565b7f455243313135353a206275726e2066726f6d20746865207a65726f206164647260008201527f6573730000000000000000000000000000000000000000000000000000000000602082015250565b60006155ef602383613899565b91506155fa82615593565b604082019050919050565b6000602082019050818103600083015261561e816155e2565b9050919050565b7f455243313135353a206275726e20616d6f756e7420657863656564732062616c60008201527f616e636500000000000000000000000000000000000000000000000000000000602082015250565b6000615681602483613899565b915061568c82615625565b604082019050919050565b600060208201905081810360008301526156b081615674565b9050919050565b7f455243313135353a2073657474696e6720617070726f76616c2073746174757360008201527f20666f722073656c660000000000000000000000000000000000000000000000602082015250565b6000615713602983613899565b915061571e826156b7565b604082019050919050565b6000602082019050818103600083015261574281615706565b9050919050565b600081519050919050565b600082825260208201905092915050565b600061577082615749565b61577a8185615754565b935061578a8185602086016138aa565b615793816138d4565b840191505092915050565b600060a0820190506157b360008301886143b4565b6157c060208301876143b4565b6157cd604083018661377c565b6157da606083018561377c565b81810360808301526157ec8184615765565b90509695505050505050565b600081519050615807816137d2565b92915050565b6000602082840312156158235761582261369e565b5b6000615831848285016157f8565b91505092915050565b60008160e01c9050919050565b600060033d11156158665760046000803e61586360005161583a565b90505b90565b600060443d106158f65761587b613694565b60043d036004823e80513d602482011167ffffffffffffffff821117156158a35750506158f6565b808201805167ffffffffffffffff8111156158c157505050506158f6565b80602083010160043d0385018111156158de5750505050506158f6565b6158ed82602001850186613979565b82955050505050505b90565b7f455243313135353a207472616e7366657220746f206e6f6e2d4552433131353560008201527f526563656976657220696d706c656d656e746572000000000000000000000000602082015250565b6000615955603483613899565b9150615960826158f9565b604082019050919050565b6000602082019050818103600083015261598481615948565b9050919050565b7f455243313135353a204552433131353552656365697665722072656a6563746560008201527f6420746f6b656e73000000000000000000000000000000000000000000000000602082015250565b60006159e7602883613899565b91506159f28261598b565b604082019050919050565b60006020820190508181036000830152615a16816159da565b9050919050565b600060a082019050615a3260008301886143b4565b615a3f60208301876143b4565b8181036040830152615a51818661400b565b90508181036060830152615a65818561400b565b90508181036080830152615a798184615765565b9050969550505050505056fe68747470733a2f2f697066732e696f2f697066732f484153485f484552452f636f6c6c656374696f6e2e6a736f6ea2646970667358221220871f5248ee965eb86c72731d3ecb0668b902eedb56dad2ff9ddd16be315b41c564736f6c6343000813003368747470733a2f2f697066732e696f2f697066732f484153485f484552452f7b69647d2e6a736f6e",
  "devdoc": {
    "details": "A contract allowing the purchase and opening of avatar customization packs with random items, powered by Chainlink's VRF for randomness.",
    "events": {
      "ApprovalForAll(address,address,bool)": {
        "details": "Emitted when `account` grants or revokes permission to `operator` to transfer their tokens, according to `approved`."
      },
      "TransferBatch(address,address,address,uint256[],uint256[])": {
        "details": "Equivalent to multiple {TransferSingle} events, where `operator`, `from` and `to` are the same for all transfers."
      },
      "TransferSingle(address,address,address,uint256,uint256)": {
        "details": "Emitted when `value` tokens of token type `id` are transferred from `from` to `to` by `operator`."
      },
      "URI(string,uint256)": {
        "details": "Emitted when the URI for token type `id` changes to `value`, if it is a non-programmatic URI. If an {URI} event was emitted for `id`, the standard https://eips.ethereum.org/EIPS/eip-1155#metadata-extensions[guarantees] that `value` will equal the value returned by {IERC1155MetadataURI-uri}."
      }
    },
    "kind": "dev",
    "methods": {
      "activatePowerUp(uint256)": {
        "details": "Activates a power-up and burns it from the user's account.",
        "params": {
          "powerupId": "The ID of the power-up to activate."
        }
      },
      "addAvatarItem(uint8,string,uint256)": {
        "details": "Adds a new avatar item to the contract.",
        "params": {
          "_type": "The type of the item (e.g., avatarSkin, avatarUpperBody).",
          "itemSupply": "The initial supply of the item.",
          "newName": "The name of the new item to be added."
        }
      },
      "addItemSupply(uint256,uint256)": {
        "details": "Increases the supply of a specific avatar item.",
        "params": {
          "additionalSupply": "The amount by which to increase the supply.",
          "itemId": "The ID of the item to increase the supply for."
        }
      },
      "addPowerUp(string,uint256,uint256)": {
        "details": "Adds a new power-up to the contract.",
        "params": {
          "duration": "The duration of the power-up's effect.",
          "multiplier": "The multiplier effect of the power-up.",
          "name": "The name of the power-up."
        }
      },
      "authorizeContract(address)": {
        "details": "Authorizes an external contract to interact with this contract.",
        "params": {
          "_address": "The address of the external contract to authorize."
        }
      },
      "balanceOf(address,uint256)": {
        "details": "See {IERC1155-balanceOf}. Requirements: - `account` cannot be the zero address."
      },
      "balanceOfBatch(address[],uint256[])": {
        "details": "See {IERC1155-balanceOfBatch}. Requirements: - `accounts` and `ids` must have the same length."
      },
      "buyPack(address)": {
        "details": "Allows purchasing avatar item packs with reward coins.",
        "params": {
          "_address": "The address making the purchase."
        },
        "returns": {
          "requestId": "The ID of the request made to Chainlink's VRF."
        }
      },
      "contractURI()": {
        "details": "Retrieves the contract URI.",
        "returns": {
          "_0": "string representing the URI of the entire contract."
        }
      },
      "doesItemExist(string)": {
        "details": "Checks if an item with a given name already exists.",
        "params": {
          "itemName": "The name of the item to check."
        },
        "returns": {
          "_0": "bool indicating whether the item exists or not."
        }
      },
      "earnRewards(address,uint256)": {
        "details": "Mints rewards to specific addresses.",
        "params": {
          "_address": "The address receiving the rewards.",
          "amount": "The amount of rewards to mint."
        }
      },
      "getChanceArray()": {
        "details": "Retrieves the chance array for different item types.",
        "returns": {
          "_0": "uint8 array representing the chances for different item types."
        }
      },
      "isApprovedForAll(address,address)": {
        "details": "See {IERC1155-isApprovedForAll}."
      },
      "powerUpMint(address,uint256,uint256)": {
        "details": "Mints a power-up to a user's account.",
        "params": {
          "_address": "The address receiving the power-up.",
          "amount": "The amount of the power-up to mint.",
          "powerUpId": "The ID of the power-up to mint."
        }
      },
      "safeBatchTransferFrom(address,address,uint256[],uint256[],bytes)": {
        "details": "See {IERC1155-safeBatchTransferFrom}."
      },
      "safeTransferFrom(address,address,uint256,uint256,bytes)": {
        "details": "See {IERC1155-safeTransferFrom}."
      },
      "setApprovalForAll(address,bool)": {
        "details": "See {IERC1155-setApprovalForAll}."
      },
      "setPackPrice(uint256)": {
        "details": "Changes the price of avatar item packs.",
        "params": {
          "newPrice": "The new price set for the avatar item packs."
        }
      },
      "supportsInterface(bytes4)": {
        "details": "See {IERC165-supportsInterface}."
      },
      "timeLock(address)": {
        "details": "Checks the duration of an activated power-up.",
        "params": {
          "_address": "The address of the account holding the power-up."
        },
        "returns": {
          "_0": "uint256 indicating the remaining duration or 1 if not activated."
        }
      },
      "uri(uint256)": {
        "details": "Retrieves the URI for a specific token ID.",
        "params": {
          "_tokenId": "The ID of the token to retrieve the URI for."
        },
        "returns": {
          "_0": "string representing the URI of the token."
        }
      },
      "viewItemDescription(uint256)": {
        "details": "Retrieves the description of a specific item.",
        "params": {
          "itemId": "The ID of the item to retrieve the description for."
        },
        "returns": {
          "_0": "ItemDescription struct containing the item's details."
        }
      }
    },
    "title": "AvatarItems: ERC1155-based Tokens for Avatar Customization",
    "version": 1
  },
  "userdoc": {
    "kind": "user",
    "methods": {},
    "version": 1
  },
  "storageLayout": {
    "storage": [
      {
        "astId": 179,
        "contract": "contracts/AvatarItems.sol:AvatarItems",
        "label": "_balances",
        "offset": 0,
        "slot": "0",
        "type": "t_mapping(t_uint256,t_mapping(t_address,t_uint256))"
      },
      {
        "astId": 185,
        "contract": "contracts/AvatarItems.sol:AvatarItems",
        "label": "_operatorApprovals",
        "offset": 0,
        "slot": "1",
        "type": "t_mapping(t_address,t_mapping(t_address,t_bool))"
      },
      {
        "astId": 187,
        "contract": "contracts/AvatarItems.sol:AvatarItems",
        "label": "_uri",
        "offset": 0,
        "slot": "2",
        "type": "t_string_storage"
      },
      {
        "astId": 3190,
        "contract": "contracts/AvatarItems.sol:AvatarItems",
        "label": "s_itemCounter",
        "offset": 0,
        "slot": "3",
        "type": "t_uint256"
      },
      {
        "astId": 3192,
        "contract": "contracts/AvatarItems.sol:AvatarItems",
        "label": "s_packPrice",
        "offset": 0,
        "slot": "4",
        "type": "t_uint256"
      },
      {
        "astId": 3197,
        "contract": "contracts/AvatarItems.sol:AvatarItems",
        "label": "COORDINATOR",
        "offset": 0,
        "slot": "5",
        "type": "t_contract(VRFCoordinatorV2Interface)95"
      },
      {
        "astId": 3227,
        "contract": "contracts/AvatarItems.sol:AvatarItems",
        "label": "ItemTypes",
        "offset": 0,
        "slot": "6",
        "type": "t_mapping(t_enum(ItemType)3216,t_array(t_uint256)dyn_storage)"
      },
      {
        "astId": 3232,
        "contract": "contracts/AvatarItems.sol:AvatarItems",
        "label": "ItemDescriptions",
        "offset": 0,
        "slot": "7",
        "type": "t_mapping(t_uint256,t_struct(ItemDescription)3221_storage)"
      },
      {
        "astId": 3236,
        "contract": "contracts/AvatarItems.sol:AvatarItems",
        "label": "AuthorizedContracts",
        "offset": 0,
        "slot": "8",
        "type": "t_mapping(t_address,t_bool)"
      },
      {
        "astId": 3240,
        "contract": "contracts/AvatarItems.sol:AvatarItems",
        "label": "Discounts",
        "offset": 0,
        "slot": "9",
        "type": "t_mapping(t_address,t_uint256)"
      },
      {
        "astId": 3534,
        "contract": "contracts/AvatarItems.sol:AvatarItems",
        "label": "getRequestAddress",
        "offset": 0,
        "slot": "10",
        "type": "t_mapping(t_uint256,t_address)"
      },
      {
        "astId": 3538,
        "contract": "contracts/AvatarItems.sol:AvatarItems",
        "label": "waitingForResponse",
        "offset": 0,
        "slot": "11",
        "type": "t_mapping(t_address,t_bool)"
      },
      {
        "astId": 3898,
        "contract": "contracts/AvatarItems.sol:AvatarItems",
        "label": "powerUps",
        "offset": 0,
        "slot": "12",
        "type": "t_mapping(t_uint256,t_struct(powerUp)3910_storage)"
      },
      {
        "astId": 3903,
        "contract": "contracts/AvatarItems.sol:AvatarItems",
        "label": "ActivationCheck",
        "offset": 0,
        "slot": "13",
        "type": "t_mapping(t_address,t_struct(powerUpActivated)3917_storage)"
      }
    ],
    "types": {
      "t_address": {
        "encoding": "inplace",
        "label": "address",
        "numberOfBytes": "20"
      },
      "t_array(t_uint256)dyn_storage": {
        "base": "t_uint256",
        "encoding": "dynamic_array",
        "label": "uint256[]",
        "numberOfBytes": "32"
      },
      "t_bool": {
        "encoding": "inplace",
        "label": "bool",
        "numberOfBytes": "1"
      },
      "t_contract(VRFCoordinatorV2Interface)95": {
        "encoding": "inplace",
        "label": "contract VRFCoordinatorV2Interface",
        "numberOfBytes": "20"
      },
      "t_enum(ItemType)3216": {
        "encoding": "inplace",
        "label": "enum AvatarItems.ItemType",
        "numberOfBytes": "1"
      },
      "t_mapping(t_address,t_bool)": {
        "encoding": "mapping",
        "key": "t_address",
        "label": "mapping(address => bool)",
        "numberOfBytes": "32",
        "value": "t_bool"
      },
      "t_mapping(t_address,t_mapping(t_address,t_bool))": {
        "encoding": "mapping",
        "key": "t_address",
        "label": "mapping(address => mapping(address => bool))",
        "numberOfBytes": "32",
        "value": "t_mapping(t_address,t_bool)"
      },
      "t_mapping(t_address,t_struct(powerUpActivated)3917_storage)": {
        "encoding": "mapping",
        "key": "t_address",
        "label": "mapping(address => struct AvatarItems.powerUpActivated)",
        "numberOfBytes": "32",
        "value": "t_struct(powerUpActivated)3917_storage"
      },
      "t_mapping(t_address,t_uint256)": {
        "encoding": "mapping",
        "key": "t_address",
        "label": "mapping(address => uint256)",
        "numberOfBytes": "32",
        "value": "t_uint256"
      },
      "t_mapping(t_enum(ItemType)3216,t_array(t_uint256)dyn_storage)": {
        "encoding": "mapping",
        "key": "t_enum(ItemType)3216",
        "label": "mapping(enum AvatarItems.ItemType => uint256[])",
        "numberOfBytes": "32",
        "value": "t_array(t_uint256)dyn_storage"
      },
      "t_mapping(t_uint256,t_address)": {
        "encoding": "mapping",
        "key": "t_uint256",
        "label": "mapping(uint256 => address)",
        "numberOfBytes": "32",
        "value": "t_address"
      },
      "t_mapping(t_uint256,t_mapping(t_address,t_uint256))": {
        "encoding": "mapping",
        "key": "t_uint256",
        "label": "mapping(uint256 => mapping(address => uint256))",
        "numberOfBytes": "32",
        "value": "t_mapping(t_address,t_uint256)"
      },
      "t_mapping(t_uint256,t_struct(ItemDescription)3221_storage)": {
        "encoding": "mapping",
        "key": "t_uint256",
        "label": "mapping(uint256 => struct AvatarItems.ItemDescription)",
        "numberOfBytes": "32",
        "value": "t_struct(ItemDescription)3221_storage"
      },
      "t_mapping(t_uint256,t_struct(powerUp)3910_storage)": {
        "encoding": "mapping",
        "key": "t_uint256",
        "label": "mapping(uint256 => struct AvatarItems.powerUp)",
        "numberOfBytes": "32",
        "value": "t_struct(powerUp)3910_storage"
      },
      "t_string_storage": {
        "encoding": "bytes",
        "label": "string",
        "numberOfBytes": "32"
      },
      "t_struct(ItemDescription)3221_storage": {
        "encoding": "inplace",
        "label": "struct AvatarItems.ItemDescription",
        "members": [
          {
            "astId": 3218,
            "contract": "contracts/AvatarItems.sol:AvatarItems",
            "label": "name",
            "offset": 0,
            "slot": "0",
            "type": "t_string_storage"
          },
          {
            "astId": 3220,
            "contract": "contracts/AvatarItems.sol:AvatarItems",
            "label": "itemSupply",
            "offset": 0,
            "slot": "1",
            "type": "t_uint256"
          }
        ],
        "numberOfBytes": "64"
      },
      "t_struct(powerUp)3910_storage": {
        "encoding": "inplace",
        "label": "struct AvatarItems.powerUp",
        "members": [
          {
            "astId": 3905,
            "contract": "contracts/AvatarItems.sol:AvatarItems",
            "label": "name",
            "offset": 0,
            "slot": "0",
            "type": "t_string_storage"
          },
          {
            "astId": 3907,
            "contract": "contracts/AvatarItems.sol:AvatarItems",
            "label": "multiplier",
            "offset": 0,
            "slot": "1",
            "type": "t_uint256"
          },
          {
            "astId": 3909,
            "contract": "contracts/AvatarItems.sol:AvatarItems",
            "label": "duration",
            "offset": 0,
            "slot": "2",
            "type": "t_uint256"
          }
        ],
        "numberOfBytes": "96"
      },
      "t_struct(powerUpActivated)3917_storage": {
        "encoding": "inplace",
        "label": "struct AvatarItems.powerUpActivated",
        "members": [
          {
            "astId": 3912,
            "contract": "contracts/AvatarItems.sol:AvatarItems",
            "label": "timestamp",
            "offset": 0,
            "slot": "0",
            "type": "t_uint256"
          },
          {
            "astId": 3914,
            "contract": "contracts/AvatarItems.sol:AvatarItems",
            "label": "duration",
            "offset": 0,
            "slot": "1",
            "type": "t_uint256"
          },
          {
            "astId": 3916,
            "contract": "contracts/AvatarItems.sol:AvatarItems",
            "label": "multiplier",
            "offset": 0,
            "slot": "2",
            "type": "t_uint256"
          }
        ],
        "numberOfBytes": "96"
      },
      "t_uint256": {
        "encoding": "inplace",
        "label": "uint256",
        "numberOfBytes": "32"
      }
    }
  }
}