{
  "address": "0xA47fBE901917f45718d07731E5BCBB2EE659A367",
  "abi": [
    {
      "inputs": [
        {
          "internalType": "uint64",
          "name": "subscriptionId",
          "type": "uint64"
        },
        {
          "internalType": "address",
          "name": "vrfCoordinator",
          "type": "address"
        },
        {
          "internalType": "bytes32",
          "name": "keyHash",
          "type": "bytes32"
        },
        {
          "internalType": "uint32",
          "name": "callbackGasLimit",
          "type": "uint32"
        },
        {
          "internalType": "uint256",
          "name": "packPrice",
          "type": "uint256"
        }
      ],
      "stateMutability": "nonpayable",
      "type": "constructor"
    },
    {
      "inputs": [],
      "name": "AvatarItems_insufficientBalance",
      "type": "error"
    },
    {
      "inputs": [
        {
          "internalType": "address",
          "name": "have",
          "type": "address"
        },
        {
          "internalType": "address",
          "name": "want",
          "type": "address"
        }
      ],
      "name": "OnlyCoordinatorCanFulfill",
      "type": "error"
    },
    {
      "anonymous": false,
      "inputs": [
        {
          "indexed": true,
          "internalType": "address",
          "name": "account",
          "type": "address"
        },
        {
          "indexed": true,
          "internalType": "address",
          "name": "operator",
          "type": "address"
        },
        {
          "indexed": false,
          "internalType": "bool",
          "name": "approved",
          "type": "bool"
        }
      ],
      "name": "ApprovalForAll",
      "type": "event"
    },
    {
      "anonymous": false,
      "inputs": [
        {
          "indexed": true,
          "internalType": "address",
          "name": "operator",
          "type": "address"
        },
        {
          "indexed": true,
          "internalType": "address",
          "name": "from",
          "type": "address"
        },
        {
          "indexed": true,
          "internalType": "address",
          "name": "to",
          "type": "address"
        },
        {
          "indexed": false,
          "internalType": "uint256[]",
          "name": "ids",
          "type": "uint256[]"
        },
        {
          "indexed": false,
          "internalType": "uint256[]",
          "name": "values",
          "type": "uint256[]"
        }
      ],
      "name": "TransferBatch",
      "type": "event"
    },
    {
      "anonymous": false,
      "inputs": [
        {
          "indexed": true,
          "internalType": "address",
          "name": "operator",
          "type": "address"
        },
        {
          "indexed": true,
          "internalType": "address",
          "name": "from",
          "type": "address"
        },
        {
          "indexed": true,
          "internalType": "address",
          "name": "to",
          "type": "address"
        },
        {
          "indexed": false,
          "internalType": "uint256",
          "name": "id",
          "type": "uint256"
        },
        {
          "indexed": false,
          "internalType": "uint256",
          "name": "value",
          "type": "uint256"
        }
      ],
      "name": "TransferSingle",
      "type": "event"
    },
    {
      "anonymous": false,
      "inputs": [
        {
          "indexed": false,
          "internalType": "string",
          "name": "value",
          "type": "string"
        },
        {
          "indexed": true,
          "internalType": "uint256",
          "name": "id",
          "type": "uint256"
        }
      ],
      "name": "URI",
      "type": "event"
    },
    {
      "anonymous": false,
      "inputs": [
        {
          "indexed": true,
          "internalType": "address",
          "name": "_address",
          "type": "address"
        },
        {
          "indexed": false,
          "internalType": "uint256",
          "name": "_amount",
          "type": "uint256"
        }
      ],
      "name": "earnedReward",
      "type": "event"
    },
    {
      "anonymous": false,
      "inputs": [
        {
          "indexed": false,
          "internalType": "enum AvatarItems.ItemType",
          "name": "_type",
          "type": "uint8"
        },
        {
          "indexed": false,
          "internalType": "uint256",
          "name": "_itemId",
          "type": "uint256"
        },
        {
          "indexed": false,
          "internalType": "string",
          "name": "_name",
          "type": "string"
        }
      ],
      "name": "itemAdded",
      "type": "event"
    },
    {
      "anonymous": false,
      "inputs": [
        {
          "indexed": true,
          "internalType": "address",
          "name": "_address",
          "type": "address"
        },
        {
          "indexed": false,
          "internalType": "uint256",
          "name": "_requestId",
          "type": "uint256"
        }
      ],
      "name": "packBought",
      "type": "event"
    },
    {
      "anonymous": false,
      "inputs": [
        {
          "indexed": true,
          "internalType": "address",
          "name": "_address",
          "type": "address"
        },
        {
          "indexed": false,
          "internalType": "uint256",
          "name": "_requestId",
          "type": "uint256"
        },
        {
          "indexed": false,
          "internalType": "uint256",
          "name": "_itemId",
          "type": "uint256"
        }
      ],
      "name": "packOpened",
      "type": "event"
    },
    {
      "inputs": [
        {
          "internalType": "address",
          "name": "",
          "type": "address"
        }
      ],
      "name": "AuthorizedContracts",
      "outputs": [
        {
          "internalType": "bool",
          "name": "",
          "type": "bool"
        }
      ],
      "stateMutability": "view",
      "type": "function"
    },
    {
      "inputs": [
        {
          "internalType": "address",
          "name": "",
          "type": "address"
        }
      ],
      "name": "Discounts",
      "outputs": [
        {
          "internalType": "uint256",
          "name": "",
          "type": "uint256"
        }
      ],
      "stateMutability": "view",
      "type": "function"
    },
    {
      "inputs": [
        {
          "internalType": "uint256",
          "name": "",
          "type": "uint256"
        }
      ],
      "name": "ItemDescriptions",
      "outputs": [
        {
          "internalType": "string",
          "name": "name",
          "type": "string"
        },
        {
          "internalType": "uint256",
          "name": "itemSupply",
          "type": "uint256"
        }
      ],
      "stateMutability": "view",
      "type": "function"
    },
    {
      "inputs": [
        {
          "internalType": "enum AvatarItems.ItemType",
          "name": "",
          "type": "uint8"
        },
        {
          "internalType": "uint256",
          "name": "",
          "type": "uint256"
        }
      ],
      "name": "ItemTypes",
      "outputs": [
        {
          "internalType": "uint256",
          "name": "",
          "type": "uint256"
        }
      ],
      "stateMutability": "view",
      "type": "function"
    },
    {
      "inputs": [
        {
          "internalType": "enum AvatarItems.ItemType",
          "name": "_type",
          "type": "uint8"
        },
        {
          "internalType": "string",
          "name": "newName",
          "type": "string"
        },
        {
          "internalType": "uint256",
          "name": "itemSupply",
          "type": "uint256"
        }
      ],
      "name": "addAvatarItem",
      "outputs": [],
      "stateMutability": "nonpayable",
      "type": "function"
    },
    {
      "inputs": [
        {
          "internalType": "uint256",
          "name": "itemId",
          "type": "uint256"
        },
        {
          "internalType": "uint256",
          "name": "additionalSupply",
          "type": "uint256"
        }
      ],
      "name": "addItemSupply",
      "outputs": [],
      "stateMutability": "nonpayable",
      "type": "function"
    },
    {
      "inputs": [
        {
          "internalType": "address",
          "name": "_address",
          "type": "address"
        }
      ],
      "name": "authorizeContract",
      "outputs": [],
      "stateMutability": "nonpayable",
      "type": "function"
    },
    {
      "inputs": [
        {
          "internalType": "address",
          "name": "account",
          "type": "address"
        },
        {
          "internalType": "uint256",
          "name": "id",
          "type": "uint256"
        }
      ],
      "name": "balanceOf",
      "outputs": [
        {
          "internalType": "uint256",
          "name": "",
          "type": "uint256"
        }
      ],
      "stateMutability": "view",
      "type": "function"
    },
    {
      "inputs": [
        {
          "internalType": "address[]",
          "name": "accounts",
          "type": "address[]"
        },
        {
          "internalType": "uint256[]",
          "name": "ids",
          "type": "uint256[]"
        }
      ],
      "name": "balanceOfBatch",
      "outputs": [
        {
          "internalType": "uint256[]",
          "name": "",
          "type": "uint256[]"
        }
      ],
      "stateMutability": "view",
      "type": "function"
    },
    {
      "inputs": [
        {
          "internalType": "address",
          "name": "_address",
          "type": "address"
        }
      ],
      "name": "buyPack",
      "outputs": [],
      "stateMutability": "nonpayable",
      "type": "function"
    },
    {
      "inputs": [],
      "name": "contractURI",
      "outputs": [
        {
          "internalType": "string",
          "name": "",
          "type": "string"
        }
      ],
      "stateMutability": "pure",
      "type": "function"
    },
    {
      "inputs": [
        {
          "internalType": "string",
          "name": "itemName",
          "type": "string"
        }
      ],
      "name": "doesItemExist",
      "outputs": [
        {
          "internalType": "bool",
          "name": "",
          "type": "bool"
        }
      ],
      "stateMutability": "view",
      "type": "function"
    },
    {
      "inputs": [
        {
          "internalType": "address",
          "name": "_address",
          "type": "address"
        },
        {
          "internalType": "uint256",
          "name": "amount",
          "type": "uint256"
        }
      ],
      "name": "earnRewards",
      "outputs": [],
      "stateMutability": "nonpayable",
      "type": "function"
    },
    {
      "inputs": [],
      "name": "getChanceArray",
      "outputs": [
        {
          "internalType": "uint8[5]",
          "name": "",
          "type": "uint8[5]"
        }
      ],
      "stateMutability": "pure",
      "type": "function"
    },
    {
      "inputs": [
        {
          "internalType": "uint256",
          "name": "",
          "type": "uint256"
        }
      ],
      "name": "getRequestAddress",
      "outputs": [
        {
          "internalType": "address",
          "name": "",
          "type": "address"
        }
      ],
      "stateMutability": "view",
      "type": "function"
    },
    {
      "inputs": [
        {
          "internalType": "address",
          "name": "account",
          "type": "address"
        },
        {
          "internalType": "address",
          "name": "operator",
          "type": "address"
        }
      ],
      "name": "isApprovedForAll",
      "outputs": [
        {
          "internalType": "bool",
          "name": "",
          "type": "bool"
        }
      ],
      "stateMutability": "view",
      "type": "function"
    },
    {
      "inputs": [
        {
          "internalType": "uint256",
          "name": "requestId",
          "type": "uint256"
        },
        {
          "internalType": "uint256[]",
          "name": "randomWords",
          "type": "uint256[]"
        }
      ],
      "name": "rawFulfillRandomWords",
      "outputs": [],
      "stateMutability": "nonpayable",
      "type": "function"
    },
    {
      "inputs": [],
      "name": "s_itemCounter",
      "outputs": [
        {
          "internalType": "uint256",
          "name": "",
          "type": "uint256"
        }
      ],
      "stateMutability": "view",
      "type": "function"
    },
    {
      "inputs": [],
      "name": "s_packPrice",
      "outputs": [
        {
          "internalType": "uint256",
          "name": "",
          "type": "uint256"
        }
      ],
      "stateMutability": "view",
      "type": "function"
    },
    {
      "inputs": [],
      "name": "s_rewardCoins",
      "outputs": [
        {
          "internalType": "uint256",
          "name": "",
          "type": "uint256"
        }
      ],
      "stateMutability": "view",
      "type": "function"
    },
    {
      "inputs": [
        {
          "internalType": "address",
          "name": "from",
          "type": "address"
        },
        {
          "internalType": "address",
          "name": "to",
          "type": "address"
        },
        {
          "internalType": "uint256[]",
          "name": "ids",
          "type": "uint256[]"
        },
        {
          "internalType": "uint256[]",
          "name": "amounts",
          "type": "uint256[]"
        },
        {
          "internalType": "bytes",
          "name": "data",
          "type": "bytes"
        }
      ],
      "name": "safeBatchTransferFrom",
      "outputs": [],
      "stateMutability": "nonpayable",
      "type": "function"
    },
    {
      "inputs": [
        {
          "internalType": "address",
          "name": "from",
          "type": "address"
        },
        {
          "internalType": "address",
          "name": "to",
          "type": "address"
        },
        {
          "internalType": "uint256",
          "name": "id",
          "type": "uint256"
        },
        {
          "internalType": "uint256",
          "name": "amount",
          "type": "uint256"
        },
        {
          "internalType": "bytes",
          "name": "data",
          "type": "bytes"
        }
      ],
      "name": "safeTransferFrom",
      "outputs": [],
      "stateMutability": "nonpayable",
      "type": "function"
    },
    {
      "inputs": [
        {
          "internalType": "address",
          "name": "operator",
          "type": "address"
        },
        {
          "internalType": "bool",
          "name": "approved",
          "type": "bool"
        }
      ],
      "name": "setApprovalForAll",
      "outputs": [],
      "stateMutability": "nonpayable",
      "type": "function"
    },
    {
      "inputs": [
        {
          "internalType": "uint256",
          "name": "newPrice",
          "type": "uint256"
        }
      ],
      "name": "setPackPrice",
      "outputs": [],
      "stateMutability": "nonpayable",
      "type": "function"
    },
    {
      "inputs": [
        {
          "internalType": "bytes4",
          "name": "interfaceId",
          "type": "bytes4"
        }
      ],
      "name": "supportsInterface",
      "outputs": [
        {
          "internalType": "bool",
          "name": "",
          "type": "bool"
        }
      ],
      "stateMutability": "view",
      "type": "function"
    },
    {
      "inputs": [
        {
          "internalType": "uint256",
          "name": "_tokenId",
          "type": "uint256"
        }
      ],
      "name": "uri",
      "outputs": [
        {
          "internalType": "string",
          "name": "",
          "type": "string"
        }
      ],
      "stateMutability": "pure",
      "type": "function"
    },
    {
      "inputs": [
        {
          "internalType": "uint256",
          "name": "itemId",
          "type": "uint256"
        }
      ],
      "name": "viewItemDescription",
      "outputs": [
        {
          "components": [
            {
              "internalType": "string",
              "name": "name",
              "type": "string"
            },
            {
              "internalType": "uint256",
              "name": "itemSupply",
              "type": "uint256"
            }
          ],
          "internalType": "struct AvatarItems.ItemDescription",
          "name": "",
          "type": "tuple"
        }
      ],
      "stateMutability": "view",
      "type": "function"
    },
    {
      "inputs": [
        {
          "internalType": "address",
          "name": "",
          "type": "address"
        }
      ],
      "name": "waitingForResponse",
      "outputs": [
        {
          "internalType": "bool",
          "name": "",
          "type": "bool"
        }
      ],
      "stateMutability": "view",
      "type": "function"
    }
  ],
  "transactionHash": "0xe57ac56d53143969318231d303d9496619a5432539979707f61270839451ac48",
  "args": [
    "2684",
    "0x8103B0A8A00be2DDC778e6e7eaa21791Cd364625",
    "0x474e34a077df58807dbe9c96d3c009b23b3c6d0cce433e59bbf5b34f823bc56c",
    "2500000",
    "10000000000000000"
  ],
  "numDeployments": 1,
  "solcInputHash": "732b51a740a1e8959ae560eb199be38b",
  "bytecode": "0x60a060405260016003553480156200001657600080fd5b50604051620058b5380380620058b583398181016040528101906200003c9190620002fe565b836040518060600160405280602881526020016200588d6028913962000068816200018360201b60201c565b508073ffffffffffffffffffffffffffffffffffffffff1660808173ffffffffffffffffffffffffffffffffffffffff16815250505083600660006101000a81548173ffffffffffffffffffffffffffffffffffffffff021916908373ffffffffffffffffffffffffffffffffffffffff16021790555033600560006101000a81548173ffffffffffffffffffffffffffffffffffffffff021916908373ffffffffffffffffffffffffffffffffffffffff16021790555084600660146101000a81548167ffffffffffffffff021916908367ffffffffffffffff1602179055508260078190555081600860006101000a81548163ffffffff021916908363ffffffff160217905550806004819055505050505050620006dd565b8060029081620001949190620005f6565b5050565b600080fd5b600067ffffffffffffffff82169050919050565b620001bc816200019d565b8114620001c857600080fd5b50565b600081519050620001dc81620001b1565b92915050565b600073ffffffffffffffffffffffffffffffffffffffff82169050919050565b60006200020f82620001e2565b9050919050565b620002218162000202565b81146200022d57600080fd5b50565b600081519050620002418162000216565b92915050565b6000819050919050565b6200025c8162000247565b81146200026857600080fd5b50565b6000815190506200027c8162000251565b92915050565b600063ffffffff82169050919050565b6200029d8162000282565b8114620002a957600080fd5b50565b600081519050620002bd8162000292565b92915050565b6000819050919050565b620002d881620002c3565b8114620002e457600080fd5b50565b600081519050620002f881620002cd565b92915050565b600080600080600060a086880312156200031d576200031c62000198565b5b60006200032d88828901620001cb565b9550506020620003408882890162000230565b945050604062000353888289016200026b565b93505060606200036688828901620002ac565b92505060806200037988828901620002e7565b9150509295509295909350565b600081519050919050565b7f4e487b7100000000000000000000000000000000000000000000000000000000600052604160045260246000fd5b7f4e487b7100000000000000000000000000000000000000000000000000000000600052602260045260246000fd5b600060028204905060018216806200040857607f821691505b6020821081036200041e576200041d620003c0565b5b50919050565b60008190508160005260206000209050919050565b60006020601f8301049050919050565b600082821b905092915050565b600060088302620004887fffffffffffffffffffffffffffffffffffffffffffffffffffffffffffffffff8262000449565b62000494868362000449565b95508019841693508086168417925050509392505050565b6000819050919050565b6000620004d7620004d1620004cb84620002c3565b620004ac565b620002c3565b9050919050565b6000819050919050565b620004f383620004b6565b6200050b6200050282620004de565b84845462000456565b825550505050565b600090565b6200052262000513565b6200052f818484620004e8565b505050565b5b8181101562000557576200054b60008262000518565b60018101905062000535565b5050565b601f821115620005a657620005708162000424565b6200057b8462000439565b810160208510156200058b578190505b620005a36200059a8562000439565b83018262000534565b50505b505050565b600082821c905092915050565b6000620005cb60001984600802620005ab565b1980831691505092915050565b6000620005e68383620005b8565b9150826002028217905092915050565b620006018262000386565b67ffffffffffffffff8111156200061d576200061c62000391565b5b620006298254620003ef565b620006368282856200055b565b600060209050601f8311600181146200066e576000841562000659578287015190505b620006658582620005d8565b865550620006d5565b601f1984166200067e8662000424565b60005b82811015620006a85784890151825560018201915060208501945060208101905062000681565b86831015620006c85784890151620006c4601f891682620005b8565b8355505b6001600288020188555050505b505050505050565b60805161518d62000700600039600081816109e00152610a34015261518d6000f3fe608060405234801561001057600080fd5b50600436106101c35760003560e01c80635edc480b116100f9578063b74fce2811610097578063e8a3d48511610071578063e8a3d4851461054d578063e985e9c51461056b578063f242432a1461059b578063fb7e1ad1146105b7576101c3565b8063b74fce28146104d1578063e41669db146104ed578063e74543b51461051d576101c3565b8063716464b3116100d3578063716464b31461044b57806390541a1114610467578063a22cb46514610485578063aae81461146104a1576101c3565b80635edc480b146103e0578063656bd0ad1461041157806367561d931461042f576101c3565b80631fc8daa411610166578063468fddec11610140578063468fddec146103465780634e1273f414610362578063522700ba146103925780635dacf5f4146103c2576101c3565b80631fc8daa4146102de5780631fe543e31461030e5780632eb2c2d61461032a576101c3565b80630e89341c116101a25780630e89341c146102445780631077246214610274578063163cd4111461029257806316d02d64146102ae576101c3565b8062fdd58e146101c857806301ffc9a7146101f85780630b6af49914610228575b600080fd5b6101e260048036038101906101dd9190612fef565b6105e7565b6040516101ef919061303e565b60405180910390f35b610212600480360381019061020d91906130b1565b6106af565b60405161021f91906130f9565b60405180910390f35b610242600480360381019061023d9190613114565b610791565b005b61025e60048036038101906102599190613114565b61086e565b60405161026b91906131d1565b60405180910390f35b61027c61089f565b604051610289919061303e565b60405180910390f35b6102ac60048036038101906102a79190612fef565b6108a5565b005b6102c860048036038101906102c391906131f3565b6109a6565b6040516102d5919061303e565b60405180910390f35b6102f860048036038101906102f391906131f3565b6109be565b60405161030591906130f9565b60405180910390f35b61032860048036038101906103239190613368565b6109de565b005b610344600480360381019061033f9190613479565b610a9e565b005b610360600480360381019061035b919061360e565b610b3f565b005b61037c60048036038101906103779190613740565b610d68565b6040516103899190613876565b60405180910390f35b6103ac60048036038101906103a79190613114565b610e81565b6040516103b9919061391f565b60405180910390f35b6103ca610f4a565b6040516103d791906139f9565b60405180910390f35b6103fa60048036038101906103f59190613114565b610f92565b604051610408929190613a14565b60405180910390f35b61041961103e565b604051610426919061303e565b60405180910390f35b610449600480360381019061044491906131f3565b611044565b005b61046560048036038101906104609190613a44565b61112f565b005b61046f611233565b60405161047c919061303e565b60405180910390f35b61049f600480360381019061049a9190613ab0565b611238565b005b6104bb60048036038101906104b691906131f3565b61124e565b6040516104c891906130f9565b60405180910390f35b6104eb60048036038101906104e691906131f3565b61126e565b005b61050760048036038101906105029190613af0565b6115eb565b604051610514919061303e565b60405180910390f35b61053760048036038101906105329190613114565b61161c565b6040516105449190613b3f565b60405180910390f35b61055561164f565b60405161056291906131d1565b60405180910390f35b61058560048036038101906105809190613b5a565b61166f565b60405161059291906130f9565b60405180910390f35b6105b560048036038101906105b09190613b9a565b611703565b005b6105d160048036038101906105cc9190613c31565b6117a4565b6040516105de91906130f9565b60405180910390f35b60008073ffffffffffffffffffffffffffffffffffffffff168373ffffffffffffffffffffffffffffffffffffffff1603610657576040517f08c379a000000000000000000000000000000000000000000000000000000000815260040161064e90613cec565b60405180910390fd5b60008083815260200190815260200160002060008473ffffffffffffffffffffffffffffffffffffffff1673ffffffffffffffffffffffffffffffffffffffff16815260200190815260200160002054905092915050565b60007fd9b67a26000000000000000000000000000000000000000000000000000000007bffffffffffffffffffffffffffffffffffffffffffffffffffffffff1916827bffffffffffffffffffffffffffffffffffffffffffffffffffffffff1916148061077a57507f0e89341c000000000000000000000000000000000000000000000000000000007bffffffffffffffffffffffffffffffffffffffffffffffffffffffff1916827bffffffffffffffffffffffffffffffffffffffffffffffffffffffff1916145b8061078a575061078982611822565b5b9050919050565b600560009054906101000a900473ffffffffffffffffffffffffffffffffffffffff1673ffffffffffffffffffffffffffffffffffffffff163373ffffffffffffffffffffffffffffffffffffffff1614610821576040517f08c379a000000000000000000000000000000000000000000000000000000000815260040161081890613d7e565b60405180910390fd5b60008111610864576040517f08c379a000000000000000000000000000000000000000000000000000000000815260040161085b90613dea565b60405180910390fd5b8060048190555050565b60606108798261188c565b6040516020016108899190613ede565b6040516020818303038152906040529050919050565b60035481565b60011515600b60003373ffffffffffffffffffffffffffffffffffffffff1673ffffffffffffffffffffffffffffffffffffffff16815260200190815260200160002060009054906101000a900460ff16151514610938576040517f08c379a000000000000000000000000000000000000000000000000000000000815260040161092f90613f7d565b60405180910390fd5b610954826000836040518060200160405280600081525061195a565b8173ffffffffffffffffffffffffffffffffffffffff167f108bfff6e011bf1baf318710fb89a5a2258e9fa5c2c3524b1f5d7e93c3ebf9258260405161099a919061303e565b60405180910390a25050565b600c6020528060005260406000206000915090505481565b600b6020528060005260406000206000915054906101000a900460ff1681565b7f000000000000000000000000000000000000000000000000000000000000000073ffffffffffffffffffffffffffffffffffffffff163373ffffffffffffffffffffffffffffffffffffffff1614610a9057337f00000000000000000000000000000000000000000000000000000000000000006040517f1cf993f4000000000000000000000000000000000000000000000000000000008152600401610a87929190613f9d565b60405180910390fd5b610a9a8282611b0a565b5050565b610aa6611fe7565b73ffffffffffffffffffffffffffffffffffffffff168573ffffffffffffffffffffffffffffffffffffffff161480610aec5750610aeb85610ae6611fe7565b61166f565b5b610b2b576040517f08c379a0000000000000000000000000000000000000000000000000000000008152600401610b2290614038565b60405180910390fd5b610b388585858585611fef565b5050505050565b600560009054906101000a900473ffffffffffffffffffffffffffffffffffffffff1673ffffffffffffffffffffffffffffffffffffffff163373ffffffffffffffffffffffffffffffffffffffff1614610bcf576040517f08c379a0000000000000000000000000000000000000000000000000000000008152600401610bc690613d7e565b60405180910390fd5b60001515610bdc836117a4565b151514610c1e576040517f08c379a0000000000000000000000000000000000000000000000000000000008152600401610c15906140a4565b60405180910390fd5b60008111610c61576040517f08c379a0000000000000000000000000000000000000000000000000000000008152600401610c5890614110565b60405180910390fd5b604051806040016040528083815260200182815250600a600060035481526020019081526020016000206000820151816000019081610ca0919061433c565b506020820151816001015590505060096000846004811115610cc557610cc461440e565b5b6004811115610cd757610cd661440e565b5b8152602001908152602001600020600354908060018154018082558091505060019003906000526020600020016000909190919091505560036000815480929190610d219061446c565b91905055507fe54ad0ab4e12db37ed8635a4aa3069158402f2aa26b35ff2f83a3a29744ed7878360035484604051610d5b939291906144fc565b60405180910390a1505050565b60608151835114610dae576040517f08c379a0000000000000000000000000000000000000000000000000000000008152600401610da5906145ac565b60405180910390fd5b6000835167ffffffffffffffff811115610dcb57610dca613225565b5b604051908082528060200260200182016040528015610df95781602001602082028036833780820191505090505b50905060005b8451811015610e7657610e46858281518110610e1e57610e1d6145cc565b5b6020026020010151858381518110610e3957610e386145cc565b5b60200260200101516105e7565b828281518110610e5957610e586145cc565b5b60200260200101818152505080610e6f9061446c565b9050610dff565b508091505092915050565b610e89612f0b565b600a6000838152602001908152602001600020604051806040016040529081600082018054610eb79061415f565b80601f0160208091040260200160405190810160405280929190818152602001828054610ee39061415f565b8015610f305780601f10610f0557610100808354040283529160200191610f30565b820191906000526020600020905b815481529060010190602001808311610f1357829003601f168201915b505050505081526020016001820154815250509050919050565b610f52612f25565b6040518060a00160405280600c60ff168152602001602260ff168152602001603860ff168152602001604e60ff168152602001606460ff16815250905090565b600a602052806000526040600020600091509050806000018054610fb59061415f565b80601f0160208091040260200160405190810160405280929190818152602001828054610fe19061415f565b801561102e5780601f106110035761010080835404028352916020019161102e565b820191906000526020600020905b81548152906001019060200180831161101157829003601f168201915b5050505050908060010154905082565b60045481565b600560009054906101000a900473ffffffffffffffffffffffffffffffffffffffff1673ffffffffffffffffffffffffffffffffffffffff163373ffffffffffffffffffffffffffffffffffffffff16146110d4576040517f08c379a00000000000000000000000000000000000000000000000000000000081526004016110cb90613d7e565b60405180910390fd5b6001600b60008373ffffffffffffffffffffffffffffffffffffffff1673ffffffffffffffffffffffffffffffffffffffff16815260200190815260200160002060006101000a81548160ff02191690831515021790555050565b600560009054906101000a900473ffffffffffffffffffffffffffffffffffffffff1673ffffffffffffffffffffffffffffffffffffffff163373ffffffffffffffffffffffffffffffffffffffff16146111bf576040517f08c379a00000000000000000000000000000000000000000000000000000000081526004016111b690613d7e565b60405180910390fd5b60008111611202576040517f08c379a00000000000000000000000000000000000000000000000000000000081526004016111f990614110565b60405180910390fd5b80600a6000848152602001908152602001600020600101600082825461122891906145fb565b925050819055505050565b600081565b61124a611243611fe7565b8383612310565b5050565b600e6020528060005260406000206000915054906101000a900460ff1681565b60001515600e60008373ffffffffffffffffffffffffffffffffffffffff1673ffffffffffffffffffffffffffffffffffffffff16815260200190815260200160002060009054906101000a900460ff16151514611301576040517f08c379a00000000000000000000000000000000000000000000000000000000081526004016112f8906146a1565b60405180910390fd5b6064600c60008373ffffffffffffffffffffffffffffffffffffffff1673ffffffffffffffffffffffffffffffffffffffff16815260200190815260200160002054606461134f91906146c1565b60045461135c91906146f5565b6113669190614766565b6113718260006105e7565b10156113a9576040517fef56c0c500000000000000000000000000000000000000000000000000000000815260040160405180910390fd5b6114198160006064600c60008673ffffffffffffffffffffffffffffffffffffffff1673ffffffffffffffffffffffffffffffffffffffff1681526020019081526020016000205460646113fd91906146c1565b60045461140a91906146f5565b6114149190614766565b61247c565b6000600660009054906101000a900473ffffffffffffffffffffffffffffffffffffffff1673ffffffffffffffffffffffffffffffffffffffff16635d3b1d30600754600660149054906101000a900467ffffffffffffffff166003600860009054906101000a900463ffffffff1660026040518663ffffffff1660e01b81526004016114aa95949392919061480f565b6020604051808303816000875af11580156114c9573d6000803e3d6000fd5b505050506040513d601f19601f820116820180604052508101906114ed9190614877565b905081600d600083815260200190815260200160002060006101000a81548173ffffffffffffffffffffffffffffffffffffffff021916908373ffffffffffffffffffffffffffffffffffffffff1602179055506001600e60008473ffffffffffffffffffffffffffffffffffffffff1673ffffffffffffffffffffffffffffffffffffffff16815260200190815260200160002060006101000a81548160ff0219169083151502179055508173ffffffffffffffffffffffffffffffffffffffff167f6996b236aa85c535db5df7b3cb8925ac9a6758d1550035bc5aa25e790b0f12ca826040516115df919061303e565b60405180910390a25050565b6009602052816000526040600020818154811061160757600080fd5b90600052602060002001600091509150505481565b600d6020528060005260406000206000915054906101000a900473ffffffffffffffffffffffffffffffffffffffff1681565b60606040518060600160405280602e815260200161512a602e9139905090565b6000600160008473ffffffffffffffffffffffffffffffffffffffff1673ffffffffffffffffffffffffffffffffffffffff16815260200190815260200160002060008373ffffffffffffffffffffffffffffffffffffffff1673ffffffffffffffffffffffffffffffffffffffff16815260200190815260200160002060009054906101000a900460ff16905092915050565b61170b611fe7565b73ffffffffffffffffffffffffffffffffffffffff168573ffffffffffffffffffffffffffffffffffffffff16148061175157506117508561174b611fe7565b61166f565b5b611790576040517f08c379a000000000000000000000000000000000000000000000000000000000815260040161178790614038565b60405180910390fd5b61179d85858585856126c2565b5050505050565b6000806000905060005b600354811015611818578380519060200120600a60006001846117d191906145fb565b81526020019081526020016000206000016040516117ef9190614947565b6040518091039020036118055760019150611818565b80806118109061446c565b9150506117ae565b5080915050919050565b60007f01ffc9a7000000000000000000000000000000000000000000000000000000007bffffffffffffffffffffffffffffffffffffffffffffffffffffffff1916827bffffffffffffffffffffffffffffffffffffffffffffffffffffffff1916149050919050565b60606000600161189b8461295d565b01905060008167ffffffffffffffff8111156118ba576118b9613225565b5b6040519080825280601f01601f1916602001820160405280156118ec5781602001600182028036833780820191505090505b509050600082602001820190505b60011561194f578080600190039150507f3031323334353637383961626364656600000000000000000000000000000000600a86061a8153600a858161194357611942614737565b5b049450600085036118fa575b819350505050919050565b600073ffffffffffffffffffffffffffffffffffffffff168473ffffffffffffffffffffffffffffffffffffffff16036119c9576040517f08c379a00000000000000000000000000000000000000000000000000000000081526004016119c0906149d0565b60405180910390fd5b60006119d3611fe7565b905060006119e085612ab0565b905060006119ed85612ab0565b90506119fe83600089858589612b2a565b8460008088815260200190815260200160002060008973ffffffffffffffffffffffffffffffffffffffff1673ffffffffffffffffffffffffffffffffffffffff1681526020019081526020016000206000828254611a5d91906145fb565b925050819055508673ffffffffffffffffffffffffffffffffffffffff16600073ffffffffffffffffffffffffffffffffffffffff168473ffffffffffffffffffffffffffffffffffffffff167fc3d58168c5ae7397731d063d5bbf3d657854427343f4c083240f7aacaa2d0f628989604051611adb9291906149f0565b60405180910390a4611af283600089858589612b32565b611b0183600089898989612b3a565b50505050505050565b60006001606383600081518110611b2457611b236145cc565b5b6020026020010151611b369190614a19565b611b4091906145fb565b905060008080611b4e610f4a565b905060005b6005811015611bd3578385118015611b845750818160058110611b7957611b786145cc565b5b602002015160ff1685105b15611ba357806004811115611b9c57611b9b61440e565b5b9250611bd3565b818160058110611bb657611bb56145cc565b5b602002015160ff1693508080611bcb9061446c565b915050611b53565b506000805b60096000856004811115611bef57611bee61440e565b5b6004811115611c0157611c0061440e565b5b815260200190815260200160002080549050811015611ca457600a600060096000876004811115611c3557611c3461440e565b5b6004811115611c4757611c4661440e565b5b81526020019081526020016000208381548110611c6757611c666145cc565b5b906000526020600020015481526020019081526020016000206001015482611c8f91906145fb565b91508080611c9c9061446c565b915050611bd8565b50600060018288600081518110611cbe57611cbd6145cc565b5b6020026020010151611cd09190614a19565b611cda91906145fb565b905060008080600090505b60096000886004811115611cfc57611cfb61440e565b5b6004811115611d0e57611d0d61440e565b5b815260200190815260200160002080549050811015611e7d578284118015611d9e5750600a6000600960008a6004811115611d4c57611d4b61440e565b5b6004811115611d5e57611d5d61440e565b5b81526020019081526020016000208381548110611d7e57611d7d6145cc565b5b906000526020600020015481526020019081526020016000206001015484105b15611dfe5760096000886004811115611dba57611db961440e565b5b6004811115611dcc57611dcb61440e565b5b81526020019081526020016000208181548110611dec57611deb6145cc565b5b90600052602060002001549150611e7d565b600a6000600960008a6004811115611e1957611e1861440e565b5b6004811115611e2b57611e2a61440e565b5b81526020019081526020016000208381548110611e4b57611e4a6145cc565b5b906000526020600020015481526020019081526020016000206001015492508080611e759061446c565b915050611ce5565b50611ecd600d60008c815260200190815260200160002060009054906101000a900473ffffffffffffffffffffffffffffffffffffffff168260016040518060200160405280600081525061195a565b6000600e6000600d60008e815260200190815260200160002060009054906101000a900473ffffffffffffffffffffffffffffffffffffffff1673ffffffffffffffffffffffffffffffffffffffff1673ffffffffffffffffffffffffffffffffffffffff16815260200190815260200160002060006101000a81548160ff021916908315150217905550600d60008b815260200190815260200160002060009054906101000a900473ffffffffffffffffffffffffffffffffffffffff1673ffffffffffffffffffffffffffffffffffffffff167f8eaeacc1f9ab5e04d365d1740e87ccbd0e2950aecca456459ee501ff7438dfbe8b83604051611fd39291906149f0565b60405180910390a250505050505050505050565b600033905090565b8151835114612033576040517f08c379a000000000000000000000000000000000000000000000000000000000815260040161202a90614abc565b60405180910390fd5b600073ffffffffffffffffffffffffffffffffffffffff168473ffffffffffffffffffffffffffffffffffffffff16036120a2576040517f08c379a000000000000000000000000000000000000000000000000000000000815260040161209990614b4e565b60405180910390fd5b60006120ac611fe7565b90506120bc818787878787612b2a565b60005b845181101561226d5760008582815181106120dd576120dc6145cc565b5b6020026020010151905060008583815181106120fc576120fb6145cc565b5b60200260200101519050600080600084815260200190815260200160002060008b73ffffffffffffffffffffffffffffffffffffffff1673ffffffffffffffffffffffffffffffffffffffff1681526020019081526020016000205490508181101561219d576040517f08c379a000000000000000000000000000000000000000000000000000000000815260040161219490614be0565b60405180910390fd5b81810360008085815260200190815260200160002060008c73ffffffffffffffffffffffffffffffffffffffff1673ffffffffffffffffffffffffffffffffffffffff168152602001908152602001600020819055508160008085815260200190815260200160002060008b73ffffffffffffffffffffffffffffffffffffffff1673ffffffffffffffffffffffffffffffffffffffff168152602001908152602001600020600082825461225291906145fb565b92505081905550505050806122669061446c565b90506120bf565b508473ffffffffffffffffffffffffffffffffffffffff168673ffffffffffffffffffffffffffffffffffffffff168273ffffffffffffffffffffffffffffffffffffffff167f4a39dc06d4c0dbc64b70af90fd698a233a518aa5d07e595d983b8c0526c8f7fb87876040516122e4929190614c00565b60405180910390a46122fa818787878787612b32565b612308818787878787612d11565b505050505050565b8173ffffffffffffffffffffffffffffffffffffffff168373ffffffffffffffffffffffffffffffffffffffff160361237e576040517f08c379a000000000000000000000000000000000000000000000000000000000815260040161237590614ca9565b60405180910390fd5b80600160008573ffffffffffffffffffffffffffffffffffffffff1673ffffffffffffffffffffffffffffffffffffffff16815260200190815260200160002060008473ffffffffffffffffffffffffffffffffffffffff1673ffffffffffffffffffffffffffffffffffffffff16815260200190815260200160002060006101000a81548160ff0219169083151502179055508173ffffffffffffffffffffffffffffffffffffffff168373ffffffffffffffffffffffffffffffffffffffff167f17307eab39ab6107e8899845ad3d59bd9653f200f220920489ca2b5937696c318360405161246f91906130f9565b60405180910390a3505050565b600073ffffffffffffffffffffffffffffffffffffffff168373ffffffffffffffffffffffffffffffffffffffff16036124eb576040517f08c379a00000000000000000000000000000000000000000000000000000000081526004016124e290614d3b565b60405180910390fd5b60006124f5611fe7565b9050600061250284612ab0565b9050600061250f84612ab0565b905061252f83876000858560405180602001604052806000815250612b2a565b600080600087815260200190815260200160002060008873ffffffffffffffffffffffffffffffffffffffff1673ffffffffffffffffffffffffffffffffffffffff168152602001908152602001600020549050848110156125c6576040517f08c379a00000000000000000000000000000000000000000000000000000000081526004016125bd90614dcd565b60405180910390fd5b84810360008088815260200190815260200160002060008973ffffffffffffffffffffffffffffffffffffffff1673ffffffffffffffffffffffffffffffffffffffff16815260200190815260200160002081905550600073ffffffffffffffffffffffffffffffffffffffff168773ffffffffffffffffffffffffffffffffffffffff168573ffffffffffffffffffffffffffffffffffffffff167fc3d58168c5ae7397731d063d5bbf3d657854427343f4c083240f7aacaa2d0f6289896040516126939291906149f0565b60405180910390a46126b984886000868660405180602001604052806000815250612b32565b50505050505050565b600073ffffffffffffffffffffffffffffffffffffffff168473ffffffffffffffffffffffffffffffffffffffff1603612731576040517f08c379a000000000000000000000000000000000000000000000000000000000815260040161272890614b4e565b60405180910390fd5b600061273b611fe7565b9050600061274885612ab0565b9050600061275585612ab0565b9050612765838989858589612b2a565b600080600088815260200190815260200160002060008a73ffffffffffffffffffffffffffffffffffffffff1673ffffffffffffffffffffffffffffffffffffffff168152602001908152602001600020549050858110156127fc576040517f08c379a00000000000000000000000000000000000000000000000000000000081526004016127f390614be0565b60405180910390fd5b85810360008089815260200190815260200160002060008b73ffffffffffffffffffffffffffffffffffffffff1673ffffffffffffffffffffffffffffffffffffffff168152602001908152602001600020819055508560008089815260200190815260200160002060008a73ffffffffffffffffffffffffffffffffffffffff1673ffffffffffffffffffffffffffffffffffffffff16815260200190815260200160002060008282546128b191906145fb565b925050819055508773ffffffffffffffffffffffffffffffffffffffff168973ffffffffffffffffffffffffffffffffffffffff168573ffffffffffffffffffffffffffffffffffffffff167fc3d58168c5ae7397731d063d5bbf3d657854427343f4c083240f7aacaa2d0f628a8a60405161292e9291906149f0565b60405180910390a4612944848a8a86868a612b32565b612952848a8a8a8a8a612b3a565b505050505050505050565b600080600090507a184f03e93ff9f4daa797ed6e38ed64bf6a1f01000000000000000083106129bb577a184f03e93ff9f4daa797ed6e38ed64bf6a1f01000000000000000083816129b1576129b0614737565b5b0492506040810190505b6d04ee2d6d415b85acef810000000083106129f8576d04ee2d6d415b85acef810000000083816129ee576129ed614737565b5b0492506020810190505b662386f26fc100008310612a2757662386f26fc100008381612a1d57612a1c614737565b5b0492506010810190505b6305f5e1008310612a50576305f5e1008381612a4657612a45614737565b5b0492506008810190505b6127108310612a75576127108381612a6b57612a6a614737565b5b0492506004810190505b60648310612a985760648381612a8e57612a8d614737565b5b0492506002810190505b600a8310612aa7576001810190505b80915050919050565b60606000600167ffffffffffffffff811115612acf57612ace613225565b5b604051908082528060200260200182016040528015612afd5781602001602082028036833780820191505090505b5090508281600081518110612b1557612b146145cc565b5b60200260200101818152505080915050919050565b505050505050565b505050505050565b612b598473ffffffffffffffffffffffffffffffffffffffff16612ee8565b15612d09578373ffffffffffffffffffffffffffffffffffffffff1663f23a6e6187878686866040518663ffffffff1660e01b8152600401612b9f959493929190614e42565b6020604051808303816000875af1925050508015612bdb57506040513d601f19601f82011682018060405250810190612bd89190614eb1565b60015b612c8057612be7614eeb565b806308c379a003612c435750612bfb614f0d565b80612c065750612c45565b806040517f08c379a0000000000000000000000000000000000000000000000000000000008152600401612c3a91906131d1565b60405180910390fd5b505b6040517f08c379a0000000000000000000000000000000000000000000000000000000008152600401612c779061500f565b60405180910390fd5b63f23a6e6160e01b7bffffffffffffffffffffffffffffffffffffffffffffffffffffffff1916817bffffffffffffffffffffffffffffffffffffffffffffffffffffffff191614612d07576040517f08c379a0000000000000000000000000000000000000000000000000000000008152600401612cfe906150a1565b60405180910390fd5b505b505050505050565b612d308473ffffffffffffffffffffffffffffffffffffffff16612ee8565b15612ee0578373ffffffffffffffffffffffffffffffffffffffff1663bc197c8187878686866040518663ffffffff1660e01b8152600401612d769594939291906150c1565b6020604051808303816000875af1925050508015612db257506040513d601f19601f82011682018060405250810190612daf9190614eb1565b60015b612e5757612dbe614eeb565b806308c379a003612e1a5750612dd2614f0d565b80612ddd5750612e1c565b806040517f08c379a0000000000000000000000000000000000000000000000000000000008152600401612e1191906131d1565b60405180910390fd5b505b6040517f08c379a0000000000000000000000000000000000000000000000000000000008152600401612e4e9061500f565b60405180910390fd5b63bc197c8160e01b7bffffffffffffffffffffffffffffffffffffffffffffffffffffffff1916817bffffffffffffffffffffffffffffffffffffffffffffffffffffffff191614612ede576040517f08c379a0000000000000000000000000000000000000000000000000000000008152600401612ed5906150a1565b60405180910390fd5b505b505050505050565b6000808273ffffffffffffffffffffffffffffffffffffffff163b119050919050565b604051806040016040528060608152602001600081525090565b6040518060a00160405280600590602082028036833780820191505090505090565b6000604051905090565b600080fd5b600080fd5b600073ffffffffffffffffffffffffffffffffffffffff82169050919050565b6000612f8682612f5b565b9050919050565b612f9681612f7b565b8114612fa157600080fd5b50565b600081359050612fb381612f8d565b92915050565b6000819050919050565b612fcc81612fb9565b8114612fd757600080fd5b50565b600081359050612fe981612fc3565b92915050565b6000806040838503121561300657613005612f51565b5b600061301485828601612fa4565b925050602061302585828601612fda565b9150509250929050565b61303881612fb9565b82525050565b6000602082019050613053600083018461302f565b92915050565b60007fffffffff0000000000000000000000000000000000000000000000000000000082169050919050565b61308e81613059565b811461309957600080fd5b50565b6000813590506130ab81613085565b92915050565b6000602082840312156130c7576130c6612f51565b5b60006130d58482850161309c565b91505092915050565b60008115159050919050565b6130f3816130de565b82525050565b600060208201905061310e60008301846130ea565b92915050565b60006020828403121561312a57613129612f51565b5b600061313884828501612fda565b91505092915050565b600081519050919050565b600082825260208201905092915050565b60005b8381101561317b578082015181840152602081019050613160565b60008484015250505050565b6000601f19601f8301169050919050565b60006131a382613141565b6131ad818561314c565b93506131bd81856020860161315d565b6131c681613187565b840191505092915050565b600060208201905081810360008301526131eb8184613198565b905092915050565b60006020828403121561320957613208612f51565b5b600061321784828501612fa4565b91505092915050565b600080fd5b7f4e487b7100000000000000000000000000000000000000000000000000000000600052604160045260246000fd5b61325d82613187565b810181811067ffffffffffffffff8211171561327c5761327b613225565b5b80604052505050565b600061328f612f47565b905061329b8282613254565b919050565b600067ffffffffffffffff8211156132bb576132ba613225565b5b602082029050602081019050919050565b600080fd5b60006132e46132df846132a0565b613285565b90508083825260208201905060208402830185811115613307576133066132cc565b5b835b81811015613330578061331c8882612fda565b845260208401935050602081019050613309565b5050509392505050565b600082601f83011261334f5761334e613220565b5b813561335f8482602086016132d1565b91505092915050565b6000806040838503121561337f5761337e612f51565b5b600061338d85828601612fda565b925050602083013567ffffffffffffffff8111156133ae576133ad612f56565b5b6133ba8582860161333a565b9150509250929050565b600080fd5b600067ffffffffffffffff8211156133e4576133e3613225565b5b6133ed82613187565b9050602081019050919050565b82818337600083830152505050565b600061341c613417846133c9565b613285565b905082815260208101848484011115613438576134376133c4565b5b6134438482856133fa565b509392505050565b600082601f8301126134605761345f613220565b5b8135613470848260208601613409565b91505092915050565b600080600080600060a0868803121561349557613494612f51565b5b60006134a388828901612fa4565b95505060206134b488828901612fa4565b945050604086013567ffffffffffffffff8111156134d5576134d4612f56565b5b6134e18882890161333a565b935050606086013567ffffffffffffffff81111561350257613501612f56565b5b61350e8882890161333a565b925050608086013567ffffffffffffffff81111561352f5761352e612f56565b5b61353b8882890161344b565b9150509295509295909350565b6005811061355557600080fd5b50565b60008135905061356781613548565b92915050565b600067ffffffffffffffff82111561358857613587613225565b5b61359182613187565b9050602081019050919050565b60006135b16135ac8461356d565b613285565b9050828152602081018484840111156135cd576135cc6133c4565b5b6135d88482856133fa565b509392505050565b600082601f8301126135f5576135f4613220565b5b813561360584826020860161359e565b91505092915050565b60008060006060848603121561362757613626612f51565b5b600061363586828701613558565b935050602084013567ffffffffffffffff81111561365657613655612f56565b5b613662868287016135e0565b925050604061367386828701612fda565b9150509250925092565b600067ffffffffffffffff82111561369857613697613225565b5b602082029050602081019050919050565b60006136bc6136b78461367d565b613285565b905080838252602082019050602084028301858111156136df576136de6132cc565b5b835b8181101561370857806136f48882612fa4565b8452602084019350506020810190506136e1565b5050509392505050565b600082601f83011261372757613726613220565b5b81356137378482602086016136a9565b91505092915050565b6000806040838503121561375757613756612f51565b5b600083013567ffffffffffffffff81111561377557613774612f56565b5b61378185828601613712565b925050602083013567ffffffffffffffff8111156137a2576137a1612f56565b5b6137ae8582860161333a565b9150509250929050565b600081519050919050565b600082825260208201905092915050565b6000819050602082019050919050565b6137ed81612fb9565b82525050565b60006137ff83836137e4565b60208301905092915050565b6000602082019050919050565b6000613823826137b8565b61382d81856137c3565b9350613838836137d4565b8060005b8381101561386957815161385088826137f3565b975061385b8361380b565b92505060018101905061383c565b5085935050505092915050565b600060208201905081810360008301526138908184613818565b905092915050565b600082825260208201905092915050565b60006138b482613141565b6138be8185613898565b93506138ce81856020860161315d565b6138d781613187565b840191505092915050565b600060408301600083015184820360008601526138ff82826138a9565b915050602083015161391460208601826137e4565b508091505092915050565b6000602082019050818103600083015261393981846138e2565b905092915050565b600060059050919050565b600081905092915050565b6000819050919050565b600060ff82169050919050565b61397781613961565b82525050565b6000613989838361396e565b60208301905092915050565b6000602082019050919050565b6139ab81613941565b6139b5818461394c565b92506139c082613957565b8060005b838110156139f15781516139d8878261397d565b96506139e383613995565b9250506001810190506139c4565b505050505050565b600060a082019050613a0e60008301846139a2565b92915050565b60006040820190508181036000830152613a2e8185613198565b9050613a3d602083018461302f565b9392505050565b60008060408385031215613a5b57613a5a612f51565b5b6000613a6985828601612fda565b9250506020613a7a85828601612fda565b9150509250929050565b613a8d816130de565b8114613a9857600080fd5b50565b600081359050613aaa81613a84565b92915050565b60008060408385031215613ac757613ac6612f51565b5b6000613ad585828601612fa4565b9250506020613ae685828601613a9b565b9150509250929050565b60008060408385031215613b0757613b06612f51565b5b6000613b1585828601613558565b9250506020613b2685828601612fda565b9150509250929050565b613b3981612f7b565b82525050565b6000602082019050613b546000830184613b30565b92915050565b60008060408385031215613b7157613b70612f51565b5b6000613b7f85828601612fa4565b9250506020613b9085828601612fa4565b9150509250929050565b600080600080600060a08688031215613bb657613bb5612f51565b5b6000613bc488828901612fa4565b9550506020613bd588828901612fa4565b9450506040613be688828901612fda565b9350506060613bf788828901612fda565b925050608086013567ffffffffffffffff811115613c1857613c17612f56565b5b613c248882890161344b565b9150509295509295909350565b600060208284031215613c4757613c46612f51565b5b600082013567ffffffffffffffff811115613c6557613c64612f56565b5b613c71848285016135e0565b91505092915050565b7f455243313135353a2061646472657373207a65726f206973206e6f742061207660008201527f616c6964206f776e657200000000000000000000000000000000000000000000602082015250565b6000613cd6602a8361314c565b9150613ce182613c7a565b604082019050919050565b60006020820190508181036000830152613d0581613cc9565b9050919050565b7f546865206164647265737320646f65736e742068617665207065726d6973736960008201527f6f6e20746f2063616c6c20746869732066756e6374696f6e0000000000000000602082015250565b6000613d6860388361314c565b9150613d7382613d0c565b604082019050919050565b60006020820190508181036000830152613d9781613d5b565b9050919050565b7f5061636b2070726963652063616e277420626520300000000000000000000000600082015250565b6000613dd460158361314c565b9150613ddf82613d9e565b602082019050919050565b60006020820190508181036000830152613e0381613dc7565b9050919050565b600081905092915050565b7f68747470733a2f2f697066732e696f2f484153485f484552452f000000000000600082015250565b6000613e4b601a83613e0a565b9150613e5682613e15565b601a82019050919050565b6000613e6c82613141565b613e768185613e0a565b9350613e8681856020860161315d565b80840191505092915050565b7f2e6a736f6e000000000000000000000000000000000000000000000000000000600082015250565b6000613ec8600583613e0a565b9150613ed382613e92565b600582019050919050565b6000613ee982613e3e565b9150613ef58284613e61565b9150613f0082613ebb565b915081905092915050565b7f5468652061646472657373206973206e6f742070617274206f6620617574686f60008201527f72697a656420636f6e7472616374730000000000000000000000000000000000602082015250565b6000613f67602f8361314c565b9150613f7282613f0b565b604082019050919050565b60006020820190508181036000830152613f9681613f5a565b9050919050565b6000604082019050613fb26000830185613b30565b613fbf6020830184613b30565b9392505050565b7f455243313135353a2063616c6c6572206973206e6f7420746f6b656e206f776e60008201527f6572206f7220617070726f766564000000000000000000000000000000000000602082015250565b6000614022602e8361314c565b915061402d82613fc6565b604082019050919050565b6000602082019050818103600083015261405181614015565b9050919050565b7f54686973206974656d20616c7265616479206578697374730000000000000000600082015250565b600061408e60188361314c565b915061409982614058565b602082019050919050565b600060208201905081810360008301526140bd81614081565b9050919050565b7f4974656d206d7573742068617665206974656d20537570706c79000000000000600082015250565b60006140fa601a8361314c565b9150614105826140c4565b602082019050919050565b60006020820190508181036000830152614129816140ed565b9050919050565b7f4e487b7100000000000000000000000000000000000000000000000000000000600052602260045260246000fd5b6000600282049050600182168061417757607f821691505b60208210810361418a57614189614130565b5b50919050565b60008190508160005260206000209050919050565b60006020601f8301049050919050565b600082821b905092915050565b6000600883026141f27fffffffffffffffffffffffffffffffffffffffffffffffffffffffffffffffff826141b5565b6141fc86836141b5565b95508019841693508086168417925050509392505050565b6000819050919050565b600061423961423461422f84612fb9565b614214565b612fb9565b9050919050565b6000819050919050565b6142538361421e565b61426761425f82614240565b8484546141c2565b825550505050565b600090565b61427c61426f565b61428781848461424a565b505050565b5b818110156142ab576142a0600082614274565b60018101905061428d565b5050565b601f8211156142f0576142c181614190565b6142ca846141a5565b810160208510156142d9578190505b6142ed6142e5856141a5565b83018261428c565b50505b505050565b600082821c905092915050565b6000614313600019846008026142f5565b1980831691505092915050565b600061432c8383614302565b9150826002028217905092915050565b61434582613141565b67ffffffffffffffff81111561435e5761435d613225565b5b614368825461415f565b6143738282856142af565b600060209050601f8311600181146143a65760008415614394578287015190505b61439e8582614320565b865550614406565b601f1984166143b486614190565b60005b828110156143dc578489015182556001820191506020850194506020810190506143b7565b868310156143f957848901516143f5601f891682614302565b8355505b6001600288020188555050505b505050505050565b7f4e487b7100000000000000000000000000000000000000000000000000000000600052602160045260246000fd5b7f4e487b7100000000000000000000000000000000000000000000000000000000600052601160045260246000fd5b600061447782612fb9565b91507fffffffffffffffffffffffffffffffffffffffffffffffffffffffffffffffff82036144a9576144a861443d565b5b600182019050919050565b600581106144c5576144c461440e565b5b50565b60008190506144d6826144b4565b919050565b60006144e6826144c8565b9050919050565b6144f6816144db565b82525050565b600060608201905061451160008301866144ed565b61451e602083018561302f565b81810360408301526145308184613198565b9050949350505050565b7f455243313135353a206163636f756e747320616e6420696473206c656e67746860008201527f206d69736d617463680000000000000000000000000000000000000000000000602082015250565b600061459660298361314c565b91506145a18261453a565b604082019050919050565b600060208201905081810360008301526145c581614589565b9050919050565b7f4e487b7100000000000000000000000000000000000000000000000000000000600052603260045260246000fd5b600061460682612fb9565b915061461183612fb9565b92508282019050808211156146295761462861443d565b5b92915050565b7f54686520616464726573732069732077616974696e6720666f7220726573706f60008201527f6e73650000000000000000000000000000000000000000000000000000000000602082015250565b600061468b60238361314c565b91506146968261462f565b604082019050919050565b600060208201905081810360008301526146ba8161467e565b9050919050565b60006146cc82612fb9565b91506146d783612fb9565b92508282039050818111156146ef576146ee61443d565b5b92915050565b600061470082612fb9565b915061470b83612fb9565b925082820261471981612fb9565b915082820484148315176147305761472f61443d565b5b5092915050565b7f4e487b7100000000000000000000000000000000000000000000000000000000600052601260045260246000fd5b600061477182612fb9565b915061477c83612fb9565b92508261478c5761478b614737565b5b828204905092915050565b6000819050919050565b6147aa81614797565b82525050565b600067ffffffffffffffff82169050919050565b6147cd816147b0565b82525050565b600061ffff82169050919050565b6147ea816147d3565b82525050565b600063ffffffff82169050919050565b614809816147f0565b82525050565b600060a08201905061482460008301886147a1565b61483160208301876147c4565b61483e60408301866147e1565b61484b6060830185614800565b6148586080830184614800565b9695505050505050565b60008151905061487181612fc3565b92915050565b60006020828403121561488d5761488c612f51565b5b600061489b84828501614862565b91505092915050565b600081905092915050565b60008190508160005260206000209050919050565b600081546148d18161415f565b6148db81866148a4565b945060018216600081146148f6576001811461490b5761493e565b60ff198316865281151582028601935061493e565b614914856148af565b60005b8381101561493657815481890152600182019150602081019050614917565b838801955050505b50505092915050565b600061495382846148c4565b915081905092915050565b7f455243313135353a206d696e7420746f20746865207a65726f2061646472657360008201527f7300000000000000000000000000000000000000000000000000000000000000602082015250565b60006149ba60218361314c565b91506149c58261495e565b604082019050919050565b600060208201905081810360008301526149e9816149ad565b9050919050565b6000604082019050614a05600083018561302f565b614a12602083018461302f565b9392505050565b6000614a2482612fb9565b9150614a2f83612fb9565b925082614a3f57614a3e614737565b5b828206905092915050565b7f455243313135353a2069647320616e6420616d6f756e7473206c656e6774682060008201527f6d69736d61746368000000000000000000000000000000000000000000000000602082015250565b6000614aa660288361314c565b9150614ab182614a4a565b604082019050919050565b60006020820190508181036000830152614ad581614a99565b9050919050565b7f455243313135353a207472616e7366657220746f20746865207a65726f20616460008201527f6472657373000000000000000000000000000000000000000000000000000000602082015250565b6000614b3860258361314c565b9150614b4382614adc565b604082019050919050565b60006020820190508181036000830152614b6781614b2b565b9050919050565b7f455243313135353a20696e73756666696369656e742062616c616e636520666f60008201527f72207472616e7366657200000000000000000000000000000000000000000000602082015250565b6000614bca602a8361314c565b9150614bd582614b6e565b604082019050919050565b60006020820190508181036000830152614bf981614bbd565b9050919050565b60006040820190508181036000830152614c1a8185613818565b90508181036020830152614c2e8184613818565b90509392505050565b7f455243313135353a2073657474696e6720617070726f76616c2073746174757360008201527f20666f722073656c660000000000000000000000000000000000000000000000602082015250565b6000614c9360298361314c565b9150614c9e82614c37565b604082019050919050565b60006020820190508181036000830152614cc281614c86565b9050919050565b7f455243313135353a206275726e2066726f6d20746865207a65726f206164647260008201527f6573730000000000000000000000000000000000000000000000000000000000602082015250565b6000614d2560238361314c565b9150614d3082614cc9565b604082019050919050565b60006020820190508181036000830152614d5481614d18565b9050919050565b7f455243313135353a206275726e20616d6f756e7420657863656564732062616c60008201527f616e636500000000000000000000000000000000000000000000000000000000602082015250565b6000614db760248361314c565b9150614dc282614d5b565b604082019050919050565b60006020820190508181036000830152614de681614daa565b9050919050565b600081519050919050565b600082825260208201905092915050565b6000614e1482614ded565b614e1e8185614df8565b9350614e2e81856020860161315d565b614e3781613187565b840191505092915050565b600060a082019050614e576000830188613b30565b614e646020830187613b30565b614e71604083018661302f565b614e7e606083018561302f565b8181036080830152614e908184614e09565b90509695505050505050565b600081519050614eab81613085565b92915050565b600060208284031215614ec757614ec6612f51565b5b6000614ed584828501614e9c565b91505092915050565b60008160e01c9050919050565b600060033d1115614f0a5760046000803e614f07600051614ede565b90505b90565b600060443d10614f9a57614f1f612f47565b60043d036004823e80513d602482011167ffffffffffffffff82111715614f47575050614f9a565b808201805167ffffffffffffffff811115614f655750505050614f9a565b80602083010160043d038501811115614f82575050505050614f9a565b614f9182602001850186613254565b82955050505050505b90565b7f455243313135353a207472616e7366657220746f206e6f6e2d4552433131353560008201527f526563656976657220696d706c656d656e746572000000000000000000000000602082015250565b6000614ff960348361314c565b915061500482614f9d565b604082019050919050565b6000602082019050818103600083015261502881614fec565b9050919050565b7f455243313135353a204552433131353552656365697665722072656a6563746560008201527f6420746f6b656e73000000000000000000000000000000000000000000000000602082015250565b600061508b60288361314c565b91506150968261502f565b604082019050919050565b600060208201905081810360008301526150ba8161507e565b9050919050565b600060a0820190506150d66000830188613b30565b6150e36020830187613b30565b81810360408301526150f58186613818565b905081810360608301526151098185613818565b9050818103608083015261511d8184614e09565b9050969550505050505056fe68747470733a2f2f697066732e696f2f697066732f484153485f484552452f636f6c6c656374696f6e2e6a736f6ea26469706673582212204a384171144fb4e15ced47e43426a06ec9f164c6bf0257f50f02c18ee527ec4c64736f6c6343000813003368747470733a2f2f697066732e696f2f697066732f484153485f484552452f7b69647d2e6a736f6e",
  "devdoc": {
    "events": {
      "ApprovalForAll(address,address,bool)": {
        "details": "Emitted when `account` grants or revokes permission to `operator` to transfer their tokens, according to `approved`."
      },
      "TransferBatch(address,address,address,uint256[],uint256[])": {
        "details": "Equivalent to multiple {TransferSingle} events, where `operator`, `from` and `to` are the same for all transfers."
      },
      "TransferSingle(address,address,address,uint256,uint256)": {
        "details": "Emitted when `value` tokens of token type `id` are transferred from `from` to `to` by `operator`."
      },
      "URI(string,uint256)": {
        "details": "Emitted when the URI for token type `id` changes to `value`, if it is a non-programmatic URI. If an {URI} event was emitted for `id`, the standard https://eips.ethereum.org/EIPS/eip-1155#metadata-extensions[guarantees] that `value` will equal the value returned by {IERC1155MetadataURI-uri}."
      }
    },
    "kind": "dev",
    "methods": {
      "balanceOf(address,uint256)": {
        "details": "See {IERC1155-balanceOf}. Requirements: - `account` cannot be the zero address."
      },
      "balanceOfBatch(address[],uint256[])": {
        "details": "See {IERC1155-balanceOfBatch}. Requirements: - `accounts` and `ids` must have the same length."
      },
      "isApprovedForAll(address,address)": {
        "details": "See {IERC1155-isApprovedForAll}."
      },
      "safeBatchTransferFrom(address,address,uint256[],uint256[],bytes)": {
        "details": "See {IERC1155-safeBatchTransferFrom}."
      },
      "safeTransferFrom(address,address,uint256,uint256,bytes)": {
        "details": "See {IERC1155-safeTransferFrom}."
      },
      "setApprovalForAll(address,bool)": {
        "details": "See {IERC1155-setApprovalForAll}."
      },
      "supportsInterface(bytes4)": {
        "details": "See {IERC165-supportsInterface}."
      }
    },
    "version": 1
  },
  "userdoc": {
    "kind": "user",
    "methods": {},
    "version": 1
  },
  "storageLayout": {
    "storage": [
      {
        "astId": 1402,
        "contract": "contracts/AvatarItems.sol:AvatarItems",
        "label": "_balances",
        "offset": 0,
        "slot": "0",
        "type": "t_mapping(t_uint256,t_mapping(t_address,t_uint256))"
      },
      {
        "astId": 1408,
        "contract": "contracts/AvatarItems.sol:AvatarItems",
        "label": "_operatorApprovals",
        "offset": 0,
        "slot": "1",
        "type": "t_mapping(t_address,t_mapping(t_address,t_bool))"
      },
      {
        "astId": 1410,
        "contract": "contracts/AvatarItems.sol:AvatarItems",
        "label": "_uri",
        "offset": 0,
        "slot": "2",
        "type": "t_string_storage"
      },
      {
        "astId": 4412,
        "contract": "contracts/AvatarItems.sol:AvatarItems",
        "label": "s_itemCounter",
        "offset": 0,
        "slot": "3",
        "type": "t_uint256"
      },
      {
        "astId": 4414,
        "contract": "contracts/AvatarItems.sol:AvatarItems",
        "label": "s_packPrice",
        "offset": 0,
        "slot": "4",
        "type": "t_uint256"
      },
      {
        "astId": 4416,
        "contract": "contracts/AvatarItems.sol:AvatarItems",
        "label": "s_owner",
        "offset": 0,
        "slot": "5",
        "type": "t_address"
      },
      {
        "astId": 4419,
        "contract": "contracts/AvatarItems.sol:AvatarItems",
        "label": "COORDINATOR",
        "offset": 0,
        "slot": "6",
        "type": "t_contract(VRFCoordinatorV2Interface)95"
      },
      {
        "astId": 4421,
        "contract": "contracts/AvatarItems.sol:AvatarItems",
        "label": "s_subscriptionId",
        "offset": 20,
        "slot": "6",
        "type": "t_uint64"
      },
      {
        "astId": 4423,
        "contract": "contracts/AvatarItems.sol:AvatarItems",
        "label": "s_keyHash",
        "offset": 0,
        "slot": "7",
        "type": "t_bytes32"
      },
      {
        "astId": 4425,
        "contract": "contracts/AvatarItems.sol:AvatarItems",
        "label": "s_callbackGasLimit",
        "offset": 0,
        "slot": "8",
        "type": "t_uint32"
      },
      {
        "astId": 4448,
        "contract": "contracts/AvatarItems.sol:AvatarItems",
        "label": "ItemTypes",
        "offset": 0,
        "slot": "9",
        "type": "t_mapping(t_enum(ItemType)4437,t_array(t_uint256)dyn_storage)"
      },
      {
        "astId": 4453,
        "contract": "contracts/AvatarItems.sol:AvatarItems",
        "label": "ItemDescriptions",
        "offset": 0,
        "slot": "10",
        "type": "t_mapping(t_uint256,t_struct(ItemDescription)4442_storage)"
      },
      {
        "astId": 4457,
        "contract": "contracts/AvatarItems.sol:AvatarItems",
        "label": "AuthorizedContracts",
        "offset": 0,
        "slot": "11",
        "type": "t_mapping(t_address,t_bool)"
      },
      {
        "astId": 4461,
        "contract": "contracts/AvatarItems.sol:AvatarItems",
        "label": "Discounts",
        "offset": 0,
        "slot": "12",
        "type": "t_mapping(t_address,t_uint256)"
      },
      {
        "astId": 4749,
        "contract": "contracts/AvatarItems.sol:AvatarItems",
        "label": "getRequestAddress",
        "offset": 0,
        "slot": "13",
        "type": "t_mapping(t_uint256,t_address)"
      },
      {
        "astId": 4753,
        "contract": "contracts/AvatarItems.sol:AvatarItems",
        "label": "waitingForResponse",
        "offset": 0,
        "slot": "14",
        "type": "t_mapping(t_address,t_bool)"
      }
    ],
    "types": {
      "t_address": {
        "encoding": "inplace",
        "label": "address",
        "numberOfBytes": "20"
      },
      "t_array(t_uint256)dyn_storage": {
        "base": "t_uint256",
        "encoding": "dynamic_array",
        "label": "uint256[]",
        "numberOfBytes": "32"
      },
      "t_bool": {
        "encoding": "inplace",
        "label": "bool",
        "numberOfBytes": "1"
      },
      "t_bytes32": {
        "encoding": "inplace",
        "label": "bytes32",
        "numberOfBytes": "32"
      },
      "t_contract(VRFCoordinatorV2Interface)95": {
        "encoding": "inplace",
        "label": "contract VRFCoordinatorV2Interface",
        "numberOfBytes": "20"
      },
      "t_enum(ItemType)4437": {
        "encoding": "inplace",
        "label": "enum AvatarItems.ItemType",
        "numberOfBytes": "1"
      },
      "t_mapping(t_address,t_bool)": {
        "encoding": "mapping",
        "key": "t_address",
        "label": "mapping(address => bool)",
        "numberOfBytes": "32",
        "value": "t_bool"
      },
      "t_mapping(t_address,t_mapping(t_address,t_bool))": {
        "encoding": "mapping",
        "key": "t_address",
        "label": "mapping(address => mapping(address => bool))",
        "numberOfBytes": "32",
        "value": "t_mapping(t_address,t_bool)"
      },
      "t_mapping(t_address,t_uint256)": {
        "encoding": "mapping",
        "key": "t_address",
        "label": "mapping(address => uint256)",
        "numberOfBytes": "32",
        "value": "t_uint256"
      },
      "t_mapping(t_enum(ItemType)4437,t_array(t_uint256)dyn_storage)": {
        "encoding": "mapping",
        "key": "t_enum(ItemType)4437",
        "label": "mapping(enum AvatarItems.ItemType => uint256[])",
        "numberOfBytes": "32",
        "value": "t_array(t_uint256)dyn_storage"
      },
      "t_mapping(t_uint256,t_address)": {
        "encoding": "mapping",
        "key": "t_uint256",
        "label": "mapping(uint256 => address)",
        "numberOfBytes": "32",
        "value": "t_address"
      },
      "t_mapping(t_uint256,t_mapping(t_address,t_uint256))": {
        "encoding": "mapping",
        "key": "t_uint256",
        "label": "mapping(uint256 => mapping(address => uint256))",
        "numberOfBytes": "32",
        "value": "t_mapping(t_address,t_uint256)"
      },
      "t_mapping(t_uint256,t_struct(ItemDescription)4442_storage)": {
        "encoding": "mapping",
        "key": "t_uint256",
        "label": "mapping(uint256 => struct AvatarItems.ItemDescription)",
        "numberOfBytes": "32",
        "value": "t_struct(ItemDescription)4442_storage"
      },
      "t_string_storage": {
        "encoding": "bytes",
        "label": "string",
        "numberOfBytes": "32"
      },
      "t_struct(ItemDescription)4442_storage": {
        "encoding": "inplace",
        "label": "struct AvatarItems.ItemDescription",
        "members": [
          {
            "astId": 4439,
            "contract": "contracts/AvatarItems.sol:AvatarItems",
            "label": "name",
            "offset": 0,
            "slot": "0",
            "type": "t_string_storage"
          },
          {
            "astId": 4441,
            "contract": "contracts/AvatarItems.sol:AvatarItems",
            "label": "itemSupply",
            "offset": 0,
            "slot": "1",
            "type": "t_uint256"
          }
        ],
        "numberOfBytes": "64"
      },
      "t_uint256": {
        "encoding": "inplace",
        "label": "uint256",
        "numberOfBytes": "32"
      },
      "t_uint32": {
        "encoding": "inplace",
        "label": "uint32",
        "numberOfBytes": "4"
      },
      "t_uint64": {
        "encoding": "inplace",
        "label": "uint64",
        "numberOfBytes": "8"
      }
    }
  }
}